:020000040800F2
:1000000000000220155500084D5400084F54000808
:1000100051540008535400085554000800000000D3
:10002000000000000000000000000000575400081D
:1000300059540008000000005B5400085D5400089B
:1000400065550008655500086555000865550008A8
:100050006555000865550008655500086555000898
:100060006555000865550008655500086555000888
:100070006555000865550008655500086555000878
:100080006555000865550008655500086555000868
:100090006555000865550008655500086555000858
:1000A0006555000865550008655500086555000848
:1000B0006555000865550008655500086555000838
:1000C0006555000865550008655500086555000828
:1000D0006555000865550008655500086555000818
:1000E0006555000865550008655500086555000808
:1000F00065550008655500086555000865550008F8
:1001000065550008655500086555000865550008E7
:1001100065550008655500086555000865550008D7
:1001200065550008655500086555000865550008C7
:10013000655500080000000000000000655500083B
:1001400065550008655500086555000865550008A7
:100150006555000865550008655500086555000897
:100160006555000865550008655500086555000887
:100170006555000865550008655500080000000039
:1001800000000000655500080000000000000000AD
:1001900065550008000000000000000065550008DB
:1001A000000000000000000000000000655500088D
:1001B0006555000865550008655500086555000837
:0401C0006555000879
:1001D00010B5054C237833B9044B13B10448AFF381
:1001E00000800123237010BDFC04002000000000EB
:1001F0007C75000808B5034B1BB103490348AFF3F6
:10020000008008BD00000000000500207C7500088B
:1002100009B900207047C0F3C613C0F38232D31867
:100220005943C91DC908420DC90002F00302430C1D
:10023000D14003F00F03042B0BD0082B01BFC0F3F8
:10024000C612C0F38230821801EB0221C91DC80812
:100250007047C0F3C612C0F38230821801EB02115E
:10026000C91DC808704710B5044605F07CF9204642
:1002700010BDDFF81404016849084900016001203D
:10028000DFF80814886088680028FCD1DFF80024B3
:100290000A600868DFF8FC13884200D0FEE7A1A0DE
:1002A0007047DFF8E4030168490849000160012054
:1002B000DFF8D813886088680028FCD1DFF8D023E5
:1002C0000A600868DFF8CC13884200D0FEE70FF21E
:1002D000DC3210687047DFF8B00301684908490054
:1002E00001600120DFF8A413886088680028FCD131
:1002F000DFF89C230A600868DFF89813884200D072
:10030000FEE70FF2AC3210687047DFF87C0301683B
:100310004908490001600120DFF87013886088688F
:100320000028FCD1DFF868230A600868DFF864134E
:10033000884200D0FEE70FF27C321068704720B18F
:100340000168DFF85423914200D00020DFF8381311
:100350000A68520852000A600121DFF830239160D8
:1003600091680029FCD1DFF8283313601168DFF8A9
:100370002423914200D0FEE77047DFF81C13016090
:10038000704708467047704720B10168DFF80823BE
:10039000914200D00020BC490A68520852000A600D
:1003A0000121BA4A916091680029FCD1B84B1360D1
:1003B0001168B84A914200D0FEE700281CBF0C30FB
:1003C00000F08AB90FF200300068704700281CBFA7
:1003D0000C3000F086B9704770B5049D044605984E
:1003E000DBB22D0445EA036545EA00250FF2DC2067
:1003F0000668A54801684908490001600120A34931
:10040000886088680028FCD1A14B0B600868A1496E
:10041000884200D0FEE71CB90FF2B420006870BD1E
:100420009D491160226000F055F910B90FF2882043
:100430000BE09A498D4228BF0FF2802005D20FF2BF
:10044000802000F063F918B99EA0066800212160A1
:10045000304670BD28B101688F4A914208BF0246FC
:1004600000D0002288490B685B085B000B6001210B
:10047000864B996099680029FCD1DFF814C2C3F853
:1004800000C01968834B994200D0FEE702B10020FA
:1004900070472DE9F04381B00A4618B101687E4BE0
:1004A000994200D0002078490B685B085B000B6024
:1004B0000121764B996099680029FCD1744C1C602D
:1004C0001968744B994200D0FEE740B30AB9112273
:1004D00006E0D16909B9132202E0D16841B91222BC
:1004E00010210C3000F0FDF8002001B0BDE8F083D1
:1004F00078CA00F1140100F1240781E8780092E83D
:10050000005387E8005303218160C26B3AB19168C0
:1005100050608A4218BF002918BF0A46F7D101B0BF
:10052000BDE8F083000000002DE9F04F83B028B152
:100530000368594CA34208BF054600D00025524825
:1005400003685B085B0003600120504B986098686B
:100550000028FCD14E4C1C6018684E4B984200D0CD
:10056000FEE7002D48D0AB6803F00300032802D05B
:10057000302211213CE00F001CBFF868002835D064
:10058000788808B9212232E014000BD0E16851B319
:10059000618811B9212213212AE0884202D0212248
:1005A000022125E0D8054CBF02200020590A01F0A5
:1005B000010141EA0008686BA96B066808680090B1
:1005C00071683068FFF724FE019000984168006868
:1005D000FFF71EFEF968002C024614BFD4F80CB0D9
:1005E0004FF0000B0CE01722132101E0172212211B
:1005F00005F10C0000F075F8002003B0BDE8F08FA5
:1006000018F0020014BFDFF89890DFF898905FEAC6
:10061000C8734CBFDFF888A0DFF88CA07B882B82E2
:1006200000276F8208B9B160F16044B15FEAC87019
:1006300005D4009BC3F808B00098C0F80CB0688AD5
:100640002B8A98421CD22C463546019E1746884676
:10065000A86832464146C847A860B044204600F02A
:10066000D7F8009881683A465846D04700EB070B08
:10067000608A218A401C608280B28842E8D3254685
:10068000688A03B0BDE8F08F002000E0003002402F
:10069000C2A507F4CDB5E8B50001C0A10100010174
:1006A00067020008830300088703000803030000B3
:1006B00001000000010100003010000001100000E6
:1006C00003840484021000001010000000000000E9
:1006D00010100000012070470146002208680A60DF
:1006E000704703785FEA036C04D141EA022101609C
:1006F000012070470020704710B50446E168884724
:10070000A068A04208BF002010BD000000B581B065
:1007100060B10178032909D15FF0040263A105F0FB
:10072000CBF8401E8041C00F01B000BD002001B0D9
:1007300000BD000042F21172811A012984BFC91E56
:100740000D2901D90F3945D1801A21D0401E21D061
:10075000801E21D0401E21D0401E21D0401E21D01D
:10076000401E21D0401E21D0401E21D0401E21D04D
:10077000401E21D0401E21D0401E21D0401E21D03D
:10078000401E21D0401E21D0801E21D012A07047D3
:1007900012A0704712A0704727A0704728A070478A
:1007A00010A0704710A0704727A070470FA0704797
:1007B00027A0704728A070472CA070472DA0704735
:1007C0000BA070472DA070472EA0704730A0704737
:1007D00034A0704700A0704700000000414444006E
:1007E000424E0000475255004C524E004E4C000005
:1007F000534D000042F21171401A012884BFC01EFF
:100800000D2801D90F3801D1012070470020704711
:1008100030B5044681B0E06B58B12064256CE968BE
:1008200028468847A868A84208BF002000282064FE
:10083000F4D101B030BD0000434F4E5632440000A9
:1008400044454E53450000004C53544D00000000F9
:100850004E4F524D000000004F5054494D495A45EB
:10086000445F434F4E563244000000005045524D05
:1008700055544500504F4F4C0000000053504C4918
:100880005400000054494D455F44454C4159000017
:1008900054494D455F444953545249425554454487
:1008A00000000000434F4E43415400000384048481
:1008B0002DE9F04F81B00D9D139CDDF82C900E9E1C
:1008C0000A98DDF83CB0DDF840C0DDF844E0DDF822
:1008D00048802F1B09FB07FA371B07FB09F7009716
:1008E00088420CBF9FED860AB7EE000A05FB0CF5A7
:1008F00006FB09F706FB0C8606FB09F603EB8603ED
:100900000C9EABEB0E0B04FB09F409FB05F5002E66
:100910000BFB07FB02EB85094ED00D46194632460C
:100920004FEA0003D3ED000ABEF1010F60EE800A2A
:100930004E4639DBDDF800C07046012C2CDB14F08C
:1009400003080AD091ED001AD6ED001A361D091DD4
:10095000B8F1010841EE210AF4D1A70800F01C808B
:1009600091ED002A96ED001AD1ED011AD6ED012A7B
:1009700042EE010A41EEA20A91ED022A96ED021A18
:10098000D1ED031AD6ED032A1036103142EE010ADA
:100990007F1E41EEA20AE3D1401E06EB8A0601EB60
:1009A0008C01CAD1CDF800C0C5ED000A2D1D1B1D5C
:1009B000521E01EB8B01B5D101B0BDE8F08F0000F4
:1009C0002DE9F24F84B0149FDDF858B0119D1398B3
:1009D000159CDDF85CC0DDF83CA0109EDDF8489069
:1009E00009FB07BB114603EB8B0B0E9A049BA5EB8F
:1009F0000C0E001B9A420CBF9FED410AB7EE000A95
:100A00007D430AFB05F501EB8501002501EB8A0713
:100A1000B942B6FBFAF60AFB0EFEA9EB0C0800FB86
:100A200009F0009768D20E920396039A002A5FD0CD
:100A3000049B0E9A029003EB8507039BCDF80410EC
:100A400002EB8506D6ED000ADDF80490012C60EE7D
:100A5000800A41DB4FEA0402BCF1010F36DB1CF0D7
:100A600003010BD09BED001AD9ED001A491E41EE8F
:100A7000210A0BF1040B09EB8A09F3D15FEA9C0010
:100A800000F024809BED001AD9ED001A09EB8A01D1
:100A900041EE210ADBED011A91ED001A01EB8A010A
:100AA00041EE810A9BED021AD1ED001A01EB8A0199
:100AB00041EE210ADBED031A91ED001A401E41EED2
:100AC000810A0BF1100B01EB8A09DBD1521E09EBF5
:100AD0008E090BEB880BBFD10298C7ED000A6D1C85
:100AE0003F1D361D5B1E0BEB800BABD102980199AD
:100AF000009A091D914298D305B0BDE8F08F00001F
:100B0000000000002DE9F24F84B0DDF84CE0DDF884
:100B100058C018981099129C159D0F9FAEEB0C0EA3
:100B20009246149AB1FBF2F91199CDF80C90091A7A
:100B300079431E46B7FBF2F304FB03FB0EFB0BFEEF
:100B4000DDF85CB0A7EB0309A4EB000804FB05B4D7
:100B50005C4306EB84040E9EDDF810B05E45119EEA
:100B60000CBF9FED3F0AB7EE000A75436F430AEBD7
:100B70008705002A08FB03F84FF0000A6CD00092AA
:100B8000039A002A62D00E9A049FCDF858C002EB57
:100B90008A06039ACDF808E007EB8A07CDF80450DF
:100BA000DDF858E0D6ED000A019DBEF1010F60EEC0
:100BB000800A3BDB012832DB4FEA000C05EB830B9C
:100BC0005D4527D294ED001AD5ED001A2D1D241D88
:100BD0005D4541EE210A1DD294ED001AD5ED001AB3
:100BE0002D1D241D5D4541EE210A13D294ED001AFE
:100BF000D5ED001A2D1D241D5D4541EE210A09D2B7
:100C000094ED001AD5ED001A2D1D241D5D4541EE11
:100C1000210AD7D3BCF1010C05EB8905CED1BEF179
:100C2000010E05EB810504EB8804C3D1029DC7EDDD
:100C3000000A3F1D361D521E04EB85040AF1010A0D
:100C4000AED1DDF858C0DDF808E0019D009A521ED3
:100C500005EB8305009293D105B0BDE8F08F00004D
:100C6000000000002DE9F04F8DB0169C04B90C4631
:100C70001E9F1D9EDDF87080DDF880E01F9DDDF871
:100C800060C0DDF86490DDF868A0DDF86CB00B9012
:100C9000BF1B1798B8F1010FAEEB050E14D1CDF8BC
:100CA00024E0089507970190CDF808C00696CDF886
:100CB00014B0CDF810A0CDF80C9000940B98FFF76D
:100CC000F7FD0DB0BDE8F08F804514D1CDF824E0DC
:100CD000089507970190CDF808C00696CDF814B096
:100CE000CDF810A0CDF80C9000940B98FFF768FE9B
:100CF0000DB0BDE8F08FCDF828E009950897019078
:100D0000CDF808C00796CDF81880CDF814B0CDF80E
:100D100010A0CDF80C9000940B98FFF7F3FE0DB0E7
:100D2000BDE8F08F70470000F0B40446049803EB70
:100D30008005203D08289FEDD90A2FD22035AB42EF
:100D400024D2087893ED001A02EB8006181DD6ED28
:100D5000000AA84200EE810A18D24B7890ED001AE2
:100D600002EB8306001DD6ED000AA84200EE810AC0
:100D70000CD28B7890ED001A02EB8306031DC91C80
:100D8000D6ED000AAB4200EE810ADAD3D4ED000AB8
:100D900030EE800A84ED000AF0BC704701F00300D9
:100DA0000328F3D8DFE800F00336414CEEE79D421C
:100DB00080F0D5802035AB42E8D2087893ED001A58
:100DC00002EB8006181DD6ED000AA84200EE810A4B
:100DD000DCD24B7890ED001A02EB8306001DD6EDB5
:100DE000000AA84200EE810AD0D28B7890ED001A5A
:100DF00002EB8306031DC91CD6ED000AAB4200EED0
:100E0000810ADAD3D4ED000A30EE800A84ED000ABC
:100E1000F0BC704711F8010B93ED001A02EB80064D
:100E20001B1DD6ED000A00EE810A11F8010B93EDAF
:100E3000001A02EB80061B1DD6ED000A00EE810AA7
:100E400011F8010B93ED001A02EB80061B1DD6ED85
:100E5000000A9D4200EE810A4ED3CF7893ED004AFE
:100E600093ED013A93ED022A93ED031A02EB870604
:100E70008F78D6ED000A02EB87064F78D6ED001A80
:100E800002EB87060F78D6ED002A02EB870603F106
:100E90001000D6ED003A0B7903EE840A02EE830AC5
:100EA00001EE820A02EB830700EE810A4B79D7ED4F
:100EB000000A90ED004AD0ED013A90ED023AD0EDF3
:100EC000032A02EB83078B7997ED001A02EB830765
:100ED000CB79D7ED001A02EB830700EE840A0831C4
:100EE00000F1100301EE230A97ED002A01EE830AB8
:100EF0009D4202EE220AB0D22035AB42BFF446AF8B
:100F0000087893ED001A02EB8006181DD6ED000A52
:100F1000A84200EE810ABFF439AF4B7890ED001A79
:100F200002EB8306001DD6ED000AA84200EE810AFE
:100F3000BFF42CAF8B7890ED001A02EB8306031DF3
:100F4000C91CD6ED000AAB4200EE810AD8D3D4ED1D
:100F5000000A30EE800A84ED000AF0BC7047CF78BA
:100F600093ED004A93ED013A93ED022A93ED031AB3
:100F700002EB87068F78D6ED000A02EB87064F78E2
:100F8000D6ED001A02EB87060F78D6ED002A02EBA9
:100F9000870603F11000D6ED003A0B7903EE840AC0
:100FA00002EE830A01EE820A02EB830700EE810A59
:100FB0004B79D7ED000A90ED004AD0ED013A90ED63
:100FC000023AD0ED032A02EB83078B7997ED001AE2
:100FD00002EB8307CB79D7ED001A02EB830700EE13
:100FE000840A083100F1100301EE230A97ED002A6C
:100FF00001EE830A9D4202EE220AB0D2DAE6000038
:10100000F0B4049C65086D0003EB8505AB429FEDD1
:10101000230A2FD211F8016B93ED002A93ED011AE8
:1010200006F00F07360902EB860602EB8707D6EDBE
:10103000001AD7ED000A083301EE820AAB4200EE37
:10104000810A17D211F8016B93ED002A93ED011A72
:1010500006F00F07360902EB860602EB8707D6ED8E
:10106000001AD7ED000A083301EE820AAB4200EE07
:10107000810ACFD3E40709D5097893ED001A09094D
:1010800002EB8102D2ED000A00EE810AD0ED001AD7
:1010900031EE800A80ED000AF0BC704700000000CD
:1010A0002DE9F04F05469BB0686900680168426809
:1010B00080680F68D2F800A0D0F800E04068BA68F5
:1010C0000D920028DAF808300193DAF81010DAF8F7
:1010D0000C903C69D7F80C802B8C0C93AE8C0F963F
:1010E000EA6A2E8DDEF80C300E9392B2DEF80830EC
:1010F00000933F68D7F808C0DEF80070D7F808E022
:10110000AB691ABF006887680027DAF80000D0F8DA
:1011100008A0E869002814BF0546DFF810575242BE
:1011200000290B926BD076421996CDF85890159401
:101130001091DDF838B00B9815990B9A169C199EF2
:101140004042D8BF0020891A594528BF5946002C73
:1011500008FB02624BD00294CDF838B0019CDDF858
:1011600000901493CDF84CC0CDF848E0119718903A
:1011700017919346029F7042D8BF0020A8EB06014A
:10118000494528BF49460A910990CDF81090CDF8FD
:101190000C80029458441799189A129B0891079250
:1011A00014990E9A069105920D99119A0191009247
:1011B0000D9A1399504301EB800251460020FFF72E
:1011C00051FD224651465046A8470C9886197F1E6D
:1011D0000AEB840A8344CED10194CDF80090DDF867
:1011E00038B0149BDDF84CC0DDF848E0119F0B9936
:1011F0000F9A109C5118641E0B9110949BD11BB038
:10120000BDE8F08F2DE9F04F0346B5B0586900688E
:1012100001684268D1F800B017688068D0F800A073
:1012200044680BF1140191E864102DA880E8641063
:10123000DBF808000490B96803913869FA681B92DA
:10124000DBF810500D95DBF80C2002921D8C1195E7
:101250009A8C198D1091B3F82CC0D3F830E05D6BE7
:10126000ADF804509E690C96DAF8081000919D6B59
:10127000DAF80C100F95DD6B1A951D6C19955D6CE5
:101280001D953E6AD3F84880DD6C46430596002CD8
:10129000FE691896DBF80060B6681796DAF8006009
:1012A000B6680B961ABF2468D4F808B04FF0000B4C
:1012B000DC69002C12BF0E94DFF870450E941E6D91
:1012C000009C16966D42029B3F68BDF80460A3EB3C
:1012D0000409109B119C994419FA8EF3D7F808E081
:1012E000059FB3FBF4F40D9B5B1A63449E19B6FB98
:1012F000F2F3641C5B1C77440028159700F01881FA
:10130000C8F10008CDF8D0802A9314952490149B3E
:10131000149D1A9E2A98002BD8BF00237519A84245
:1013200032BF0746149FF7191B98349D002800F020
:10133000F680DE1B3396CDF8ACC025942393289716
:10134000139522901398139B0F9C0028CCBF064640
:1013500000262598E318984232BF0346139BE318F2
:101360003398F41A04FB00FA2398289CA042F04614
:101370004FF0000980F2C5802B9C239D2C92504396
:10138000041B28982196451B1198279312941F95AA
:10139000129A0D9B129C279E5242D8BF00221B1B03
:1013A0008B423ABF0D9B1D1B0D46219C109B444355
:1013B000E31A219CB44280F29980AD1A3295A6EBD3
:1013C000040C129D309E049C009FCDF898B075438C
:1013D0003195CDF880A0039D029E11901C91CDF80F
:1013E000A4E01E929A46E346319ADDF8BCE0DAF1B9
:1013F0000001D8BF002101EB0A0C0EFB0C22A6EB6A
:101400000A00B84217980244269834BFA6EB0A0394
:101410003B4608B94FEA0800DDF830E0DDF8C8C007
:101420005B1ABEF1010F12D108910993CDF81CC0CF
:101430001E9906911C9905910090049703960295B8
:10144000019441460B9B0020FFF732FA28E0A645A5
:1014500012D1099308910090CDF81CC0049703960F
:101460000295019400201C9B1E990593069141460C
:101470000B9BFFF7A5FA13E009910A930090CDF8B2
:1014800020C0049703960295019400201E990C9B9E
:10149000079106931C990B9B05914146FFF732FB80
:1014A0000E9B2A464146404698472098DDF858C092
:1014B00009F10109484518BF002000902B462998E2
:1014C0002A464146E0471198DDF85480BBF1010BF4
:1014D000824489D111981C99DDF898B0DDF8A4E018
:1014E000DDF880A00494039502960097129A2C9B35
:1014F0009A1812921F9A521E1F927FF449AF1190B0
:101500002C9A1398199B18181390229B18985B1EFD
:10151000864422937FF416AFDDF8ACC0259C149B63
:101520001D9D249EEB18761E149324967FF4EFAE37
:1015300035B0BDE8F08F00002DE9F04F89B040696B
:101540000068016842688068D0F8008044680E68CE
:10155000D2F800E0DEF80C00DEF81020B568DEF806
:1015600008105043D8F8002013684FEA535AC3F3C9
:10157000C6190AF0030A5B0C002729FA0AF903F0DE
:101580000F03CDF80490042B366814BF082BD768DE
:10159000DEF80020D8F81830D2F80890B268002899
:1015A00009EB810666D0CDF81C800594069104975E
:1015B00000960390079801688868059909B10C683E
:1015C000A168049C002C009C10D1A14547D2A246E2
:1015D0002E464F461C46904681460D46002D19BFAB
:1015E00055F8040B02900021029128E0A14536D263
:1015F000049C009F9846164682468B46BBF1000F1E
:1016000019BF5BF8040B029000200290019900952D
:10161000042933462246514602A803D1FFF7F0FCC5
:1016200002E000BFFFF780FB029849F8040BB945C0
:10163000C244E3D304944346324600970FE0334656
:101640004246494602A800F0F5FF029847F8040B0D
:101650005745A144C2D335462346B9464246009871
:10166000069900EB810403980094401E02EB85026A
:1016700003909FD109B0BDE8F08F00002DE9F04F35
:101680008AB015468B469A46149BD0F804C0696808
:1016900000915C680294B3F8009004885E884088EA
:1016A000BBF80010BBF80220B5F800E06F88DBF84B
:1016B00004300593049300254FFA8AF3002B0CBFE6
:1016C000A0468046012F0CBF00230423BEF1010F6A
:1016D00004D1012F07D0C6F1000E05E0012F08BF8D
:1016E0004FF0010E00D0AE460FFA8EF701974FFA79
:1016F0008AF7002F0CBFA3468346CB4515D19DF931
:101700004CE0BEF1000F0CBF91468946B1450CD1AB
:101710004FFA8AF6002E0CBF8346A346BEF1000F97
:101720000CBF0E461646B3456CD06FF002000AB0EF
:10173000BDE8F08F059D9700089786000796CDF8C5
:1017400018C0ADF802404446DDF810C04FFA8AF6E2
:10175000DDF81880002E9FED341A0CBF0646BDF848
:101760000260B6B14FFA8AF7002F0CBF0427079F1B
:10177000BEF1000FD8ED001A95ED002AB8440CBF59
:10178000089F0427ED19761EB7B2002F01EE821ACA
:10179000E8D120EE011ADBED001A641E00EEA11A5A
:1017A000A4B2BEF1000F89ED001A0EBF151B0D1B70
:1017B0005543002C09F104099B440CEB8505C5D168
:1017C000DDF80C90069DBDF80240CDF810C0099ED2
:1017D0004E4403964FFA8AF6002E0CBF4FEA800C57
:1017E0004FF0040CAC44019D0BEB850BBDF8005091
:1017F0006E1EADF80060BDF8005055B900200AB06B
:10180000BDE8F08FDDF800B00395ADF80080CDF8AD
:10181000249003AE029D3688BEF1000F05EB8609C9
:101820000CBF9046884685E700000000250D0008A3
:10183000F0B58BB0416909680A68496809680D68A4
:10184000146853689268AD68CE680F690995ADF861
:101850002070ADF822602568E668AD682469ADF8AF
:101860001840ADF81A6007951C68DD68A4681B690C
:10187000ADF81030ADF8125005941368D4689B6829
:101880001269ADF80820ADF80A4008AA0393019246
:1018900002AA90F92110009104A990F92030D0ED0E
:1018A000070A90ED060A06A8FFF7E8FE0BB0F0BDA8
:1018B0002DE9F0410F4614462DED028B022C064611
:1018C00097ED008ADFEDC38A3DD3611E3A1D11F00A
:1018D00003000CD092ED000AB4EE480AF1EE10FAC3
:1018E00058BFB0EE408A401E02F10402F2D18908CE
:1018F00000F02B8092ED000AB4EE480AF1EE10FAE7
:1019000058BFB0EE408A92ED010AB4EE480AF1EEFB
:1019100010FA58BFB0EE408A92ED020AB4EE480ABF
:10192000F1EE10FA58BFB0EE408A92ED030AB4EE21
:10193000480AF1EE10FA58BFB0EE408A491E02F193
:101940001002D7D101E0002C40D0B0464FEA040588
:1019500097ED000A30EE480A04F002FE3F1D88EDC4
:10196000000A6D1E78EE808A08F10408F0D1B7EE07
:10197000000A14F0030080EE280A09D0D6ED000A10
:1019800060EE800AC6ED000A401E06F10406F5D19D
:10199000A4081BD0D6ED000A60EE800AC6ED000A4E
:1019A000641E96ED011AD6ED020A21EE001A86EDAC
:1019B000011A60EE800A96ED031AC6ED020A21EEC6
:1019C000001A86ED031A06F11006E3D1BDEC028B76
:1019D000BDE8F0812DE9F04381B00C4604EB8209AB
:1019E000089E099F4C4580461D460AD22A4621463C
:1019F0004046FFF75DFF04EB86044C4508EB870883
:101A0000F4D301B0BDE8F08370B50D4605EB820656
:101A1000B542044680F00A8095ED000A04F04EFDC0
:101A200084ED000A241D2D1DB542F5D370BD0000C4
:101A300070B50D4605EB8206B542044680F0148071
:101A400095ED000AB1EE400A04F08AFDF7EE000AB7
:101A500070EE200AB7EE000A80EE200A84ED000A3C
:101A6000241D2D1DB542EBD370BD000001EB820299
:101A7000914216D24FF0FF3391ED000AB5EE400AC5
:101A8000F1EE10FACCBF9FEDC60A00EE103A091D28
:101A90008446B8EEC00A91420CF104008CED000AB5
:101AA000EAD3704701EB8202914216D2034691EDD0
:101AB000001A181DB4EE410AF1EE10FA58BFB0EE4C
:101AC000401AB4EE601AF1EE10FA58BFB0EE601A88
:101AD000091D914283ED001AE8D3704701EB8202A1
:101AE00091420FD2034691ED000A181DB5EE400A4F
:101AF000F1EE10FAD8BF9FED370A091D914283ED30
:101B0000000AEFD37047000001EB820291421AD223
:101B1000B1EE080A0346D1ED000A181DF5EE400AA1
:101B2000F1EE10FA08DDF4EE400AF1EE10FA58BFBB
:101B3000F0EE400A02E000BFDFED260A091D9142E7
:101B4000C3ED000AE6D37047F0B581B00D4605EB52
:101B500082062DED048BB5420446F0EE408AB0EECD
:101B6000608A32D2274695ED009A3C1DB5EE409A28
:101B7000F1EE10FA4CBFDFED179AF0EE499AB0EE95
:101B8000490A04F0EDFCFFEE000A30EE200A20EED8
:101B9000280AB5EE400AF1EE10FA05DD9FED0D1AA8
:101BA00079EE819A0AE000BFB0EE490A04F0D8FC51
:101BB000FFEE000A30EE200A40EE289A2D1D28EE96
:101BC000290AB54287ED000ACCD3BDEC048B01B0E5
:101BD000F0BD00000000000001EB8303994220D219
:101BE00091ED000A92ED001AB5EE400AF1EE10FAFE
:101BF0004CBFDFEDA50AF0EE400AB1EE400AB5EEAB
:101C0000400AF1EE10FA48BF9FED9F0A091D121D10
:101C1000844641EE400A99420CF10400CCED000AE2
:101C2000DED37047406903681968D1F800C0DCF85A
:101C30000420DCF80800DCF80C104243DCF810004B
:101C4000DCF800C04A4359680B684243DCF80800DE
:101C5000D3F800C0DCF8081000EB820290420FD2EB
:101C60000B4690ED000A191DB5EE400AF1EE10FA90
:101C7000D8BF9FED850A001D904283ED000AEFD387
:101C800070470000406903681968D1F800C0DCF8AB
:101C90000420DCF80800DCF80C104243DCF81000EB
:101CA000DCF800C04A4359680B684243DCF808007E
:101CB000D3F800C0DCF8081000EB820290421AD280
:101CC000B1EE080A0B46D0ED000A191DF5EE400AE8
:101CD000F1EE10FA08DDF4EE400AF1EE10FA58BF0A
:101CE000F0EE400A02E000BFDFED670A001D9042FF
:101CF000C3ED000AE6D37047F0B581B02DED048B3B
:101D0000416990ED078A0D68D0ED068A2A6814684B
:101D100020686368A168E2684B4321698468686849
:101D200053434B4301680A68956804EB8306B44249
:101D300031D22F4694ED009A3D1DB5EE409AF1EE5A
:101D400010FA4CBFDFED509AF0EE499AB0EE490A16
:101D500004F006FCFFEE000A30EE200A20EE280A0E
:101D6000B5EE400AF1EE10FA04DD9FED471A79EE68
:101D7000819A09E0B0EE490A04F0F2FBFFEE000A96
:101D800030EE200A40EE289A241D28EE290AB4429B
:101D900087ED000ACDD3BDEC048B01B0F0BD00008F
:101DA0000100000030B441690C68226815686B6856
:101DB000A968EA6880694B4329692D6853436268C2
:101DC00014684B43A96825680468AA68A06801EBF9
:101DD000830399421FD2144691ED000A221DB5EEED
:101DE000400AF1EE10FA4CBFDFED270AF0EE400A90
:101DF000B1EE400AB5EE400AF1EE10FA48BF9FED91
:101E0000220A90ED001A091D001D41EE400A994278
:101E1000C4ED000ADFD330BC70470000406903689E
:101E20001968D1F800C0DCF80420DCF80800DCF800
:101E30000C104243DCF81000DCF800C04A4359683B
:101E40000B684243DCF80800D3F800C0DCF8081047
:101E500000EB8202904216D24FF0FF3390ED000A61
:101E6000B5EE400AF1EE10FACCBF9FED080A00EE85
:101E7000103A001D8C46B8EEC00A90420CF10401E5
:101E80008CED000AEAD3704700000000010000005A
:101E900030B4416990ED070A0C68D0ED060A22685B
:101EA00015686B68A968EA68286880684B432969E7
:101EB00053434B4361680A681468A16800EB8302CE
:101EC000904216D20B4690ED001A191DF4EE410A0D
:101ED000F1EE10FA58BFB0EE601AB4EE401AF1EE0F
:101EE00010FA58BFB0EE401A001D904283ED001A60
:101EF000E8D330BC7047000070B5406903681968CA
:101F00000C686268A068E168424320692468A4689C
:101F10004A434243586801680B689D6804EB820697
:101F2000B44213D294ED000AB1EE400A04F018FB5B
:101F3000F7EE000A70EE200AB7EE000A80EE200AE3
:101F400085ED000A2D1D241DB442EBD370BD0000A9
:101F500070B54069036819680C686268A068E16838
:101F6000424320692468A4684A4342435868016890
:101F70000B689D6804EB8206B44209D294ED000A16
:101F800004F09CFA85ED000A2D1D241DB442F5D302
:101F900070BD30B583B04069046821680D68AA68D7
:101FA0000192009213466868E968424328692D68E7
:101FB0004A43424360680468A9682568A868FFF737
:101FC00009FD03B030BD000070B401EB8204A142F2
:101FD00057D2002B51D013F003020D46064611D004
:101FE00096ED000AD5ED000AF4EE400AF1EE10FA83
:101FF00058BFB0EE600A86ED000A521E361D2D1D38
:10200000002AEDD19A0838D0D5ED000AD6ED001A95
:10201000F4EE610AF1EE10FA48BFF0EE610AC6ED87
:10202000000AD5ED010AD6ED011A96ED020AF4EE8A
:10203000610AF1EE10FA48BFF0EE610AC6ED010A3E
:1020400095ED021AD6ED031AB4EE401AF1EE10FA2D
:1020500048BFB0EE401A86ED021AD5ED030AF4EE41
:10206000610AF1EE10FA58BFF0EE601AC6ED031ADD
:10207000521E10361035002AC6D101EB8301A14251
:10208000A7D370BC7047000070B401EB8204A1427A
:102090004FD2002B49D013F003020D4606460ED056
:1020A00095ED000A88421CBFD6ED000A30EE800A8A
:1020B00086ED000A521E361D2D1D002AF0D19A0809
:1020C00033D08842D5ED001A0CD1C6ED001A95ED3B
:1020D000010A86ED010AD5ED021AC6ED021AD5ED08
:1020E000031A1BE0D6ED000A30EEA10A86ED000AC5
:1020F00096ED011A95ED010AD6ED021A31EE000AAD
:1021000086ED010AD5ED020A31EEA00A86ED020A3B
:1021100096ED030A95ED031A70EE011AC6ED031A47
:10212000521E10361035002ACBD101EB8301A1429B
:10213000AFD30399A1B300EE101AB8EE400AF7EE40
:10214000000A80EE800A5BB313F0030100F00A80FE
:10215000D0ED000A60EE800AC0ED000A491E00F1D1
:102160000400F5D19B081BD0D0ED000A60EE800A78
:10217000C0ED000A5B1E90ED011AD0ED020A21EEBF
:10218000001A80ED011A60EE800A90ED031AC0ED8E
:10219000020A21EE001A80ED031A00F11000E3D1CB
:1021A00070BC70472DE9F04F03468EB05869006847
:1021B000016840680C68076821693D690991FA68FF
:1021C0000892D4F80C80A1689A69D86907905E6A71
:1021D000186A0D963F682468D7F808E0DF6A9E6A9F
:1021E000A4687F42002D009700F0D98001957642C7
:1021F0000C9601FB08F50B95009D009B009F6D421E
:10220000099DCCBF0026009EEB1A079DAB4288BFFC
:102210002B46DF19089B0C9D002B00F0B78008FBB4
:1022200006FACDF828A0CDF80C800292069005960B
:1022300004976842039F029ADDF82C80CCBF0020EF
:1022400028467F1B974288BF17460A9A7F193F1A74
:10225000801848434F4304EB800C11B311F0030086
:102260007246664600F0068056F8049B42F8049BCE
:10227000401EF9D1880814D096ED000A82ED000ABC
:10228000401ED6ED010AC2ED010A96ED020A82ED6A
:10229000020AD6ED030AC2ED030A103210360028F6
:1022A000EAD10598049A904266DA1046059A821A95
:1022B000E2460AEB870BDA455AD2002954D011F0D6
:1022C00003005646F14612D099ED000AD6ED000AF9
:1022D000F4EE400AF1EE10FA58BFB0EE600A401E6C
:1022E000361D89ED000A002809F10409ECD188089F
:1022F00000F03A80D6ED000AD9ED001AF4EE610A3A
:10230000F1EE10FA48BFF0EE610AC9ED000AD6ED11
:10231000010AD9ED011A99ED020AF4EE610AF1EE13
:1023200010FA48BFF0EE610AC9ED010A96ED021AF3
:10233000D9ED031AB4EE401AF1EE10FA48BFB0EE30
:10234000401A89ED021AD6ED030AF4EE610AF1EEA5
:1023500010FA58BFF0EE601A401E1036C9ED031A8D
:10236000002809F11009C5D10AEB810ADA45A4D386
:10237000521E0CEB880C9BD1069845195B1E0EEB88
:10238000810E7FF456AFDDF80C80029A009D0D9B04
:102390005D190095019D6D1E01957FF42DAF0EB066
:1023A000BDE8F08F2DE9F04F94B0416909680A68E3
:1023B000496815680E682A6933690C92F4680B94B1
:1023C000EA68A968D0F81880C4690A94D0F820C0D7
:1023D000476A13972D68876A3468C06AD5F808E0A1
:1023E000D4F808904042002B019000F020817F42F9
:1023F00001FB02F403931297119401980C9B019E28
:10240000129C40420198CCBF0027019F181A0A9BDA
:10241000984288BF184686190B98002800F0FE8065
:10242000054602FB07F010900592B81B0F90CDF8FF
:102430001080CDF824C0CDF820E0079706960094D0
:1024400002950098059ADDF800E0119C4042009842
:10245000CCBF4FF0000CDDF800C0101A049A904277
:1024600088BF104686440F98109AACEB0E05454382
:10247000089862444A43AEEB0C0600EB82074E43D9
:10248000002289B111F003004B4603D0401E43F8EF
:10249000042BFBD1880807D01A605A609A60DA6072
:1024A000401E03F11003F7D10798069B984280F273
:1024B000A3801B1AAEEB0C000D900E9494460D9861
:1024C00084446545BE460CBF2C4600240EEB8608AE
:1024D000C6454ED20022002947D011F00300F24633
:1024E000CB4610D09AED000AF1451CBFDBED000A87
:1024F00030EE800A521C8BED000A401E0BF1040BDB
:102500000AF1040AEED1880800F02F800EEB820A4F
:1025100009EB8202DAED001AF1451CBF92ED000AC8
:1025200070EE211AC2ED001ADAED011A1CBFD2EDCD
:10253000010A70EEA11AC2ED011A9AED021A1CBF2F
:1025400092ED020A30EE011A82ED021ADAED031A58
:102550001CBFD2ED030A70EEA11AC2ED031A401E91
:10256000103200280AF1100AD4D10EEB810EC645B4
:10257000B0D3002C3AD000EE104AB8EE400AF7EE85
:10258000000A80EE800A002281B311F003004C465D
:1025900000F00B80D4ED000A60EE800A521CC4EDFE
:1025A000000A401E04F10404F4D1880800F01E80E3
:1025B00009EB8202D2ED000A60EE800AC2ED000A49
:1025C000401E92ED011AD2ED020A21EE001A82EDB0
:1025D000011A60EE800A92ED031AC2ED020A21EEA2
:1025E000001A82ED031A02F11002E3D10E985B1E6D
:1025F00007EB80077FF463AF0098099A10180090EA
:1026000009EB81090298401E02907FF41AAF059AE7
:10261000DDF81080DDF824C0DDF820E0019C139B7C
:102620001C190194039C641E03947FF4E6AE14B05D
:10263000BDE8F08F30B50446084681B011461A4611
:10264000002500956B4600F0EDFE94ED000ADDEDEF
:10265000000A70EE200AC4ED000A01B030BD00008F
:10266000F0EE400AF5EE400AF1EE10FA9FED280A6E
:1026700001DBB1EEE00A704703F072BF03F0EABF7E
:1026800003F01CBFB5EE400AF1EE10FAD8BF9FED83
:10269000200A7047B5EE400AF1EE10FAD8BF20EEDE
:1026A000200A704700B581B0B1EE400A03F058FF30
:1026B000F7EE000A30EE200AB7EE001A81EE000AAB
:1026C00001B000BDF0EE400A9FED121AB6EE000A0E
:1026D00000EE810ADFED100AB4EE600AF1EE10FAA6
:1026E00007DAB5EE400AF1EE10FA04D59FED080ABC
:1026F0007047B7EE000A7047B5EE400AF1EE10FAE7
:10270000CCBF9FED060A9FED060AB8EEC00A7047DF
:1027100000000000CDCC4C3E0100803F01000000D5
:10272000FFFFFFFF000000000000000000000000AD
:1027300001F0FF01102A2BDB10F0070F08D010F872
:10274000013B013A8B422DD010F0070F42B3F6D176
:10275000F0B441EA012141EA014122F007047FF08F
:1027600000070023F0E80256083C85EA010586EAE6
:10277000010685FA47F5A3FA87F586FA47F6A5FA22
:1027800087F68EB9EED1F0BC01F0FF0102F007022E
:1027900032B110F8013B013A83EA010313B1F8D1D9
:1027A0000020704701387047002D06BF35460338BA
:1027B000073815F0010F07D1013015F4807F02BFF3
:1027C000013015F4C03F0130F0BC0138704700BF44
:1027D00081F0004102E000BF83F0004330B54FEAD2
:1027E00041044FEA430594EA050F08BF90EA020F3F
:1027F0001FBF54EA000C55EA020C7FEA645C7FEAD2
:10280000655C00F0E2804FEA5454D4EB5555B8BFF4
:102810006D420CDD2C4480EA020281EA030382EA65
:10282000000083EA010180EA020281EA0303362DF7
:1028300088BF30BD11F0004F4FEA01314FF4801CCA
:102840004CEA113102D0404261EB410113F0004FDC
:102850004FEA03334CEA133302D0524263EB430393
:1028600094EA050F00F0A780A4F10104D5F1200E31
:102870000DDB02FA0EFC22FA05F2801841F100018C
:1028800003FA0EF2801843FA05F359410EE0A5F160
:1028900020050EF1200E012A03FA0EFC28BF4CF091
:1028A000020C43FA05F3C01851EBE37101F0004547
:1028B00007D54FF0000EDCF1000C7EEB00006EEB54
:1028C0000101B1F5801F1BD3B1F5001F0CD34908DE
:1028D0005FEA30004FEA3C0C04F101044FEA445235
:1028E00012F5800F80F09A80BCF1004F08BF5FEABC
:1028F000500C50F1000041EB045141EA050130BD9C
:102900005FEA4C0C404141EB010111F4801FA4F13E
:102910000104E9D191F0000F04BF01460020B1FA93
:1029200081F308BF2033A3F10B03B3F120020CDACB
:102930000C3208DD02F1140CC2F10C0201FA0CF0A9
:1029400021FA02F10CE002F11402D8BFC2F1200C0E
:1029500001FA02F120FA0CFCDCBF41EA0C019040C4
:10296000E41AA2BF01EB0451294330BD6FEA04040D
:102970001F3C1CDA0C340EDC04F11404C4F12002F8
:1029800020FA04F001FA02F340EA030021FA04F30A
:1029900045EA030130BDC4F10C04C4F1200220FA61
:1029A00002F001FA04F340EA0300294630BD21FA9F
:1029B00004F0294630BD94F0000F83F4801306BF65
:1029C00081F480110134013D4EE77FEA645C18BF59
:1029D0007FEA655C29D094EA050F08BF90EA020FF0
:1029E00005D054EA000C04BF1946104630BD91EAE8
:1029F000030F1EBF0021002030BD5FEA545C05D1EB
:102A00004000494128BF41F0004130BD14F5800429
:102A10003CBF01F5801130BD01F0004545F0FE419D
:102A200041F470014FF0000030BD7FEA645C1ABFD2
:102A3000194610467FEA655C1CBF0B46024650EA09
:102A4000013406BF52EA033591EA030F41F4002135
:102A500030BD00BF90F0000F04BF0021704730B5BB
:102A60004FF4806404F132044FF000054FF0000190
:102A700050E700BF90F0000F04BF0021704730B551
:102A80004FF4806404F1320410F0004548BF404226
:102A90004FF000013EE700BF42004FEAE2014FEA7B
:102AA00031014FEA02701FBF12F07F4393F07F4F56
:102AB00081F06051704792F0000F14BF93F07F4F88
:102AC000704730B54FF4607401F0004521F00041CB
:102AD00020E700BF50EA010208BF704730B54FF051
:102AE00000050AE050EA010208BF704730B511F056
:102AF000004502D5404261EB41014FF4806404F18E
:102B000032045FEA915C3FF4DCAE4FF003025FEA0F
:102B1000DC0C18BF03325FEADC0C18BF033202EB97
:102B2000DC02C2F1200300FA03FC20FA02F001FAF1
:102B300003FE40EA0E0021FA02F11444C1E600BF90
:102B400070B54FF0FF0C4CF4E06C1CEA11541DBF43
:102B50001CEA135594EA0C0F95EA0C0F00F0DEF80E
:102B60002C4481EA030621EA4C5123EA4C5350EAF3
:102B7000013518BF52EA033541F4801143F4801344
:102B800038D0A0FB02CE4FF00005E1FB02E506F0D5
:102B90000042E0FB03E54FF00006E1FB03569CF02A
:102BA000000F18BF4EF0010EA4F1FF04B6F5007F30
:102BB00064F5407404D25FEA4E0E6D4146EB0606A2
:102BC00042EAC62141EA55514FEAC52040EA5E502B
:102BD0004FEACE2EB4F1FD0C88BFBCF5E06F1ED8D5
:102BE000BEF1004F08BF5FEA500E50F1000041EB0C
:102BF000045170BD06F0004646EA010140EA0200B9
:102C000081EA0301B4EB5C04C2BFD4EB0C0541EADA
:102C1000045170BD41F480114FF0000E013C00F3EF
:102C2000AB8014F1360FDEBF002001F0004170BD13
:102C3000C4F10004203C35DA0C341BDC04F114042C
:102C4000C4F1200500FA05F320FA04F001FA05F2B8
:102C500040EA020001F0004221F0004110EBD37085
:102C600021FA04F642EB06015EEA430E08BF20EAB1
:102C7000D37070BDC4F10C04C4F1200500FA04F354
:102C800020FA05F001FA04F240EA020001F00041E6
:102C900010EBD37041F100015EEA430E08BF20EA59
:102CA000D37070BDC4F1200500FA05F24EEA020EA1
:102CB00020FA04F301FA05F243EA020321FA04F0D0
:102CC00001F0004121FA04F220EA020000EBD37087
:102CD0005EEA430E08BF20EAD37070BD94F0000F87
:102CE0000FD101F00046400041EB010111F4801FBB
:102CF00008BF013CF7D041EA060195F0000F18BF6C
:102D0000704703F00046520043EB030313F4801FA7
:102D100008BF013DF7D043EA0603704794EA0C0F61
:102D20000CEA135518BF95EA0C0F0CD050EA410677
:102D300018BF52EA4306D1D181EA030101F00041F4
:102D40004FF0000070BD50EA410606BF104619461C
:102D500052EA430619D094EA0C0F02D150EA013628
:102D600013D195EA0C0F05D152EA03361CBF104669
:102D700019460AD181EA030101F0004141F0FE4108
:102D800041F470014FF0000070BD41F0FE4141F48C
:102D9000780170BD70B54FF0FF0C4CF4E06C1CEA8C
:102DA00011541DBF1CEA135594EA0C0F95EA0C0F41
:102DB00000F0A7F8A4EB050481EA030E52EA0335FC
:102DC0004FEA013100F088804FEA03334FF080551D
:102DD00045EA131343EA12634FEA022245EA11154A
:102DE00045EA10654FEA00260EF000419D4208BFFB
:102DF000964244F1FD0404F5407402D25B084FEAA8
:102E00003202B61A65EB03055B084FEA32024FF453
:102E100080104FF4002CB6EB020E75EB030E22BFB0
:102E2000B61A754640EA0C005B084FEA3202B6EB70
:102E3000020E75EB030E22BFB61A754640EA5C001F
:102E40005B084FEA3202B6EB020E75EB030E22BFAF
:102E5000B61A754640EA9C005B084FEA3202B6EBB0
:102E6000020E75EB030E22BFB61A754640EADC006F
:102E700055EA060E18D04FEA051545EA16754FEAD1
:102E800006164FEAC30343EA52734FEAC2025FEAEF
:102E90001C1CC0D111F4801F0BD141EA00014FF07E
:102EA00000004FF0004CB6E711F4801F04BF01434F
:102EB0000020B4F1FD0C88BFBCF5E06F3FF6AFAE6B
:102EC000B5EB030C04BFB6EB020C5FEA500C50F1FB
:102ED000000041EB045170BD0EF0004E4EEA11317E
:102EE00014EB5C04C2BFD4EB0C0541EA045170BD85
:102EF00041F480114FF0000E013C90E645EA060EC9
:102F00008DE60CEA135594EA0C0F08BF95EA0C0FF6
:102F10003FF43BAF94EA0C0F0AD150EA01347FF43E
:102F200034AF95EA0C0F7FF425AF104619462CE715
:102F300095EA0C0F06D152EA03353FF4FDAE104678
:102F4000194622E750EA410618BF52EA43067FF4C9
:102F5000C5AE50EA41047FF40DAF52EA43057FF459
:102F6000EBAE12E74FF0FF3C06E000BF4FF0010C64
:102F700002E000BF4FF0010C4DF804CD4FEA410CC8
:102F80007FEA6C5C4FEA430C18BF7FEA6C5C1BD095
:102F900001B050EA410C0CBF52EA430C91EA030F16
:102FA00002BF90EA020F0020704710F1000F91EA73
:102FB000030F58BF994208BF90422CBFD8176FEA41
:102FC000E37040F0010070474FEA410C7FEA6C5C0F
:102FD00002D150EA013C07D14FEA430C7FEA6C5C16
:102FE000D6D152EA033CD3D05DF8040B704700BF42
:102FF0008446104662468C461946634600E000BF90
:1030000001B5FFF7B7FF002848BF10F1000F01BD61
:103010004DF808EDFFF7F4FF0CBF012000205DF82C
:1030200008FB00BF4DF808EDFFF7EAFF34BF0120B1
:1030300000205DF808FB00BF4DF808EDFFF7E0FF4A
:1030400094BF012000205DF808FB00BF4DF808ED9B
:10305000FFF7CEFF94BF012000205DF808FB00BF02
:103060004DF808EDFFF7C4FF34BF012000205DF8E4
:1030700008FB00BF4FEA4102B2F1E04324BFB3F5C1
:10308000001CDCF1FE5C0DD901F0004C4FEAC002DF
:103090004CEA5070B2F1004F40EB830008BF20F0C3
:1030A0000100704711F0804F21D113F13872BCBF7D
:1030B00001F00040704741F480114FEA5252C2F1D2
:1030C0001802C2F1200C10FA0CF320FA02F018BF1B
:1030D00040F001004FEAC1234FEAD32303FA0CFC6E
:1030E00040EA0C0023FA02F34FEA4303CCE77FEAFD
:1030F000625307D150EA01331EBF4FF0FE4040F447
:103100004000704701F0004040F0FE4040F40000F5
:10311000704700BF53B94AB9002908BF00281CBF37
:103120004FF0FF314FF0FF3000F07AB9ADF1080CED
:103130006DE904CE00F006F8DDF804E0DDE90223D5
:1031400004B070472DE9F0478C460D460446089EB2
:10315000002B51D18A4217466DD9B2FA82FEBEF1D8
:10316000000F0BD0CEF1200C01FA0EF520FA0CFC6A
:1031700002FA0EF74CEA050C00FA0EF44FEA174A71
:10318000250CBCFBFAF81FFA87F90AFB18CC45EAB4
:103190000C4508FB09F3AB420AD9ED1908F1FF32DF
:1031A00080F02381AB4240F22081A8F102083D4427
:1031B000ED1AA4B2B5FBFAF00AFB105544EA054437
:1031C00000FB09F9A14509D9E41900F1FF3380F0AA
:1031D0000A81A14540F2078102383C44A4EB09046E
:1031E00040EA08400021002E61D024FA0EF40023AA
:1031F00034607360BDE8F0878B4207D9002E54D04D
:10320000002186E821000846BDE8F087B3FA83F183
:10321000002940F08E80AB4202D3824200F2FA8055
:10322000841A65EB03050120AC46002E3FD086E8EA
:103230001010BDE8F08712B90127B7FBF2F7B7FA13
:1032400087FEBEF1000F34D1EB1B3A0C1FFA87FC4E
:103250000121B3FBF2F8250C02FB183345EA0345C4
:103260000CFB08F3AB4207D9ED1908F1FF3002D28D
:10327000AB4200F2D1808046ED1AA3B2B5FBF2F06A
:1032800002FB105543EA05440CFB00FCA44507D99A
:10329000E41900F1FF3302D2A44500F2B8801846C9
:1032A000A4EB0C0440EA08409DE731463046BDE8F7
:1032B000F087CEF1200405FA0EF307FA0EF720FA94
:1032C00004F83A0C25FA04F448EA0308B4FBF2F1D6
:1032D0004FEA184502FB11441FFA87FC45EA0445F2
:1032E00001FB0CF3AB4200FA0EF409D9ED1901F120
:1032F000FF3080F08A80AB4240F2878002393D4443
:10330000EB1A1FFA88F5B3FBF2F002FB103345EA23
:10331000034500FB0CF3AB4207D9ED1900F1FF3870
:103320006FD2AB426DD902383D44EB1A40EA0141FD
:103330008FE7C1F1200722FA07F88B4005FA01F464
:1033400048EA030320FA07FE4FEA134CFD404EEA19
:10335000040EB5FBFCF94FEA1E440CFB19551FFA8D
:1033600083F844EA054509FB08F4AC4202FA01F28D
:1033700000FA01FA08D9ED1809F1FF3043D2AC4246
:1033800041D9A9F102091D442D1B1FFA8EFEB5FB80
:10339000FCF00CFB10554EEA054400FB08F8A04574
:1033A00007D9E41800F1FF3529D2A04527D9023802
:1033B0001C4440EA0940A4EB0804A0FB02894C45E8
:1033C000C6464D4615D312D056B1BAEB0E0364EB88
:1033D000050404FA07F7CB401F43CC403760746004
:1033E0000021BDE8F0871846F8E69046E0E6C245C1
:1033F000EAD2B8EB020E69EB03050138E4E7284690
:10340000D7E7404691E78146BEE7014678E70238B4
:103410003C4445E7084608E7A8F102083D442BE78D
:10342000704700BFF0B5DFED1B7A960805460C46E5
:103430003746103510345FB93401214402F00302DD
:10344000204401EB820291421CD1C3ED007AF0BD11
:1034500055ED046A14ED047AE6EE877A013F55EDE6
:10346000036A14ED037AE6EE877A55ED026A14EDED
:10347000027AE6EE877A55ED016A14ED017AE6EEFE
:10348000877AD6E7F0EC016AB1EC017AE6EE877A4A
:10349000D9E700BF0000000038B50E4A0E4B0546C4
:1034A00018784FF47A73B3FBF0F31068B0FBF3F0C5
:1034B00000F09CF8044658B90F2D09D80246294659
:1034C0004FF0FF3000F05EF8044B20461D6038BD21
:1034D000012038BD900400200000002004000020DE
:1034E00008B50B4B1A6842F400721A601A6842F46D
:1034F00080621A601A6842F480721A60032000F039
:103500002FF80020FFF7C8FF01F0FAFE002008BDE9
:10351000003C0240034A044B11681B780B441360C3
:10352000704700BF4410002000000020014B1868C5
:10353000704700BF4410002038B50446FFF7F6FF7F
:10354000631C1CBF054B1B78054618BFE418FFF72A
:10355000EDFF401B8442FAD838BD00BF00000020B8
:10356000074AD36823F4E0631B041B0C43F0BF63DA
:10357000000243F4003300F4E0600343D36070477B
:1035800000ED00E0174B30B5DC68C4F30224C4F151
:103590000703251D042B28BF0423062D4FF001052A
:1035A00005FA03F303F1FF338CBF033C00241940F9
:1035B000A14005FA04F4013C2240002842EA01023D
:1035C0004FEA0212ADBF00F1604000F00F00064B61
:1035D00000F56140B5BFD2B2D2B21A5480F80023D0
:1035E00030BD00BF00ED00E014ED00E00138B0F1A7
:1035F000807F0AD2064B074A5860F02182F82310D8
:103600000020072298601A6070470120704700BFB1
:1036100010E000E000ED00E010B5044660B1437931
:1036200003F0FF0213B9027101F086FE02236371F9
:1036300001236371002010BD012010BD2DE9F04F62
:1036400085B00B68DFF8A081654ADFF8A09101938F
:1036500000234FF0010E019C0EFA03FE0EEA040651
:10366000B64540F0AA804C6824F01007022F16D10E
:103670004FEAD30A00EB8A0A03F0070BDAF820506E
:103680004FEA8B0B4FF00F0C0CFA0BFC25EA0C0CDD
:103690000D6905FA0BF545EA0C05CAF820504FEA0A
:1036A000430A0325D0F800B005FA0AF5ED4304F00B
:1036B000030C0BEA050B0CFA0AFC013F4CEA0B0C5D
:1036C000012FC0F800C011D8876807EA050BCF6842
:1036D00007FA0AFC4CEA0B078760476827EA0E0ED8
:1036E000C4F300179F4047EA0E074760C7683D4094
:1036F0008F6807FA0AF73D43C560E5005DD54FF0D6
:10370000000BCDF80CB0D8F84470364D47F4804724
:10371000C8F84470D8F8447007F480470397039FB3
:1037200023F0030707F1804707F59C3703F0030CEC
:10373000D7F808A04FEA8C0C4FF00F0E0EFA0CFED3
:10374000A8422AEA0E0E3FD005F58065A8423DD07A
:1037500005F58065A8423BD005F58065A84239D0C3
:1037600005F58065A84237D0484537D005F5006596
:10377000A84214BF0725062505FA0CF545EA0E05F3
:10378000BD601568F74314F4803F0CBF3D403543DE
:103790001560556814F4003F0CBF3D40354355603B
:1037A000956814F4801F0CBF3D4035439560D56883
:1037B000A40254BF3D403543D5600133102B7FF444
:1037C00048AF05B0BDE8F08F5D46D5E70125D3E7EA
:1037D0000225D1E70325CFE70425CDE70525CBE773
:1037E000003C01400000024000380240001402404A
:1037F00001684B6913F480634FF0000210D06FF43E
:1038000080634B612023026380F83D3080F83E20C6
:10381000036C80F83C2043F00403036401207047EC
:10382000184670472DE9F843044617469946C1F3F8
:1038300007488EB22568B8F1010F0CBF6B69AB6900
:1038400036EA030314BF0120002008B9BDE8F8835D
:103850006B695A0516D52B6843F400732B606FF41F
:1038600080636B6120220023236384F83D2084F869
:103870003E30226C42F00402226484F83C30012085
:10388000BDE8F8837B1CD5D0FFF750FEA0EB090004
:10389000874201D3002FCDD100232022236384F857
:1038A0003D2084F83E30226C42F02002E4E770B5FF
:1038B00004460D46164623685B695B0701D5002068
:1038C00070BD2046FFF794FFA8B96A1CF3D0FFF73C
:1038D0002DFE801B854201D3002DECD10023202238
:1038E000236384F83D2084F83E30226C84F83C3019
:1038F00042F020022264012070BD70B504460D46DE
:1039000016462068436913F0400301D0002070BDC3
:103910004269D2060ED56FF0100242612022236365
:1039200084F83D2084F83E30226C226484F83C30D8
:10393000012070BDFFF7FAFD801BA84201D8002DC1
:10394000DFD100232022236384F83D2084F83E3019
:10395000226C42F02002E8E72DE9F843089E044675
:1039600090461F46C1F307498DB22368B9F1010F94
:103970000CBF5B699B6935EA03030CBF012300237D
:10398000434502D00020BDE8F8837B1CEDD0FFF753
:10399000CDFD801B874201D3002FE6D100232022DA
:1039A000236384F83D2084F83E30226C84F83C3058
:1039B00042F0200222640120BDE8F88370B504467D
:1039C0000D46164623685B691B0601D5002070BDB5
:1039D0002046FFF70DFFA8B96A1CF3D0FFF7A6FD3C
:1039E000801B854201D3002DECD1002320222363CC
:1039F00084F83D2084F83E30226C84F83C3042F05C
:103A000020022264012070BD2DE9FF419846036821
:103A10000B9D16461A6842F480621A601A6842F4D6
:103A200080721A600F4600950A9B00224FF0011128
:103A30000446FFF791FF18B1012004B0BDE8F08102
:103A400023682B49FFB207F0FE021A6120462B467D
:103A50000A9AFFF7E7FE0028EED1236803905A691F
:103A600003929B6903932A460A99039B2046FFF71A
:103A7000A5FF40B1236C042B01BF2268136843F4F7
:103A800000731360D8E7B8F1010F236825D1F6B2AF
:103A90001E612A460A992046FFF790FF0246002839
:103AA000E8D121680B6843F480730B6020460095D1
:103AB0000A9B4FF00111FFF74FFF0028BCD123688C
:103AC0000A9A0B4947F001071F6120462B46FFF772
:103AD000A9FE003018BF0120AFE7320A1A610A9927
:103AE0002A462046FFF76AFF0028C3D12368CEE7A5
:103AF0000200010070B5044608B9012070BD90F8BD
:103B00003D3003F0FF021BB980F83C2001F02CFC93
:103B10002268242384F83D30136823F001031360E6
:103B200000F03CFB6568414B9D424DD8404B9842AC
:103B3000E3D922683F495368B0FBF1F123F03F031A
:103B40000B435360136A23F03F03013119431162A1
:103B5000D169364B21F44F419D4221F0FF0100F124
:103B6000FF3048D86D00B0FBF5F00130C0F30B0317
:103B7000042B38BF04230B43D3611168206AE36927
:103B800021F0C00103430B4313609168E06823698F
:103B900021F40341034321F0FF010B439360D168FB
:103BA000A069636921F0FF0103430B43D3601368ED
:103BB00043F00103136000202023206484F83D308B
:103BC000206384F83E0070BD1B4B984295D9226853
:103BD000184E5368B0FBF6F623F03F0333435360AF
:103BE000136A4FF49671714323F03F034FF47A76D2
:103BF000B1FBF6F1A9E7A36853B905EB4503B0FBA8
:103C0000F3F0431CC3F30B036BB143F40043B2E77F
:103C100019236B43B0FBF3F0431CC3F30B0313B145
:103C200043F44043A7E70123A5E700BFA0860100B6
:103C30007F841E0040420F00FF083D002DE9FF4138
:103C400004461F460D469046FFF770FC94F83D3041
:103C5000202B064604D00225284604B0BDE8F0819A
:103C600000901923012258492046FFF775FE0028CD
:103C7000F1D194F83C30012BEDD0012384F83C3095
:103C800023681A68D2075EBF1A6842F001021A6000
:103C90001A6822F400621A60212284F83D20102262
:103CA00084F83E20002222646785628D2285474A7F
:103CB000E262E26AC4F82480082A04D0012A02D011
:103CC00012F5803F04D11A6842F480721A6002E053
:103CD000226B122AF7D000960A9B00224FF00111A6
:103CE0002046FFF739FE08B10125B5E723692268B0
:103CF000B3F5804F13D105F0FE05156133460A9ADE
:103D000033492046FFF78EFD05460028ECD1236895
:103D100003905A6903929B690393039B44E0EB1160
:103D200003F0060343F0F00313612A490A9A33466D
:103D30002046FFF777FD0028D6D12368EDB21D613C
:103D4000DCE732460A992046FFF738FE40B1236C83
:103D5000042B01BF2268136843F400731360C3E7A8
:103D6000636A20681A4612F8011B01616262628D63
:103D7000013A92B26285228D4769511E89B27F074E
:103D800021850AD549B15978016102336362638D97
:103D9000013B9BB2023A6385228532460A9920464E
:103DA000FFF785FD0028D2D1238D002BC9D12168D2
:103DB0000A6842F400720A60202284F83D2084F8E8
:103DC0003C3084F83E3047E7020010000000FFFF5F
:103DD00002000100080001002DE9F043044687B00D
:103DE00099460D469046109FFFF7A0FB94F83D3092
:103DF000202B064604D00225284607B0BDE8F083F4
:103E000000901923012277492046FFF7A5FD0028DD
:103E1000F1D194F83C30012BEDD0012384F83C30F3
:103E200023681A68D0075EBF1A6842F001021A6060
:103E30001A6822F400621A60222384F83D3040237D
:103E400084F83E30002323640E9B6362BDF83C304F
:103E50006385638D2385644BE36229460196009751
:103E60004B4642462046FFF7CFFD054608B10125E7
:103E7000C2E7228D236892B902905A6902929A6928
:103E80000292029A1A6842F400721A60202384F89F
:103E90003D30002384F83E3084F83C30ACE7012A02
:103EA0002CD11A6822F480621A6003905A69039236
:103EB0009A690392039A1A6842F400721A60DFF852
:103EC0002C81238D002BE1D0032B6ED8012B2DD11B
:103ED000324639462046FFF710FD0028C7D1226838
:103EE000636A12691A70636A01336362238D013B4E
:103EF0002385638D013B9BB26385E2E7022A0ED1E5
:103F00001A6822F480621A601A6842F400621A6029
:103F100004905A6904929B690493049BCFE705902F
:103F20005A6905929B690593059BC8E7022B009689
:103F30003B464FF000024146204619D1FFF70CFDE9
:103F4000002894D123681A6842F400721A60626AE9
:103F50001B691370626A531C6362238D013B2385C6
:103F6000638D013B9BB2638523681B695370BAE77D
:103F7000FFF7F2FC024600287FF479AF2368196846
:103F800021F480611960616A1B690B70636A009695
:103F900001336362238D013B2385638D013B9BB21B
:103FA000638541463B462046C8E7324639462046AF
:103FB000FFF7A3FC00287FF45AAF2268636A1269F6
:103FC0001A70626A531C6362238D013B2385638DE3
:103FD000013B9BB263852368596949077FF571AF3F
:103FE000C3E700BF020010000000FFFF0400010053
:103FF00037B500230193184B184C1A6C42F08052CD
:104000001A641B6C03F080530193019B144B012233
:104010001A60FFF78BFA05466368DA030BD5114B7C
:104020000E4C01221A60FFF781FA054663689B0374
:104030000AD5002006E0FFF779FA401BB0F57A7F39
:10404000EAD9032003B030BDFFF770FA401BB0F58A
:104050007A7FEBD9F5E700BF0038024000700040DE
:1040600040000E4244000E422DE9F0410D46044648
:1040700010B90120BDE8F081444B1A6802F00F022C
:104080008A4228D321688F072DD4C80740D43F4BDC
:104090001A6802F00F02954266D3226851076CD469
:1040A000130707D53A4A2169936823F4604343EA2A
:1040B000C103936000F092F8354B364A9B68C3F316
:1040C0000313D35CD840344B18600020FFF7E4F9A9
:1040D0000020BDE8F081CAB21A701B6803F00F031C
:1040E0009942C6D1CEE72A4B11F0040F1EBF9A6841
:1040F00042F4E0529A600E0742BF9A6842F460426E
:104100009A609A68A06822F0F00202439A60BCE7C5
:1041100062681F4B012A1DD11B6813F4003FA8D011
:104120001B4EB36823F003031343B360FFF7FEF99C
:1041300041F288380746B368626803F00C03B3EBBA
:10414000820FA4D0FFF7F2F9C01B4045F3D903203A
:10415000BDE8F081911E01291B6802D813F0007F91
:10416000DDE713F0020FDAE7EAB21A701B6803F01A
:104170000F039D427FF47DAF8FE70549E0688B68B0
:1041800023F4E05303438B608AE700BF003C024006
:104190000038024035B8000890040020044B054A5E
:1041A0009B68C3F38223D35C034A1068D8407047EE
:1041B0000038024045B8000890040020044B054A2E
:1041C0009B68C3F34233D35C034A1068D8407047FE
:1041D0000038024045B8000890040020204908B586
:1041E0008B6803F00C03082B07D00C2B20D01D4A42
:1041F0001D48042B18BF104608BD4A684B68496823
:1042000013F4800314BF18481648C1F3881118BF6F
:10421000002302F03F02A1FB0001FEF77BFF104BE1
:104220005B68C3F3014301335B00B0FBF3F008BDEF
:104230004A684B68496813F4800314BF0A48094868
:10424000C1F3881118BF002302F03F02A1FB000157
:10425000FEF760FF024B5B68C3F30273E5E700BF44
:10426000003802400024F40000127A0003682DE9AF
:10427000F341DF07044610D423689E0767D4236800
:104280001A0700F1B28023685B0700F1D080A269B1
:10429000002A40F0398100201EE0974B9A6802F016
:1042A0000C02042A10D09A6802F00C02082A02D1EB
:1042B0005B685D0208D4904B9A6802F00C020C2AED
:1042C0000DD15A6850020AD58B4B1B689903D3D580
:1042D0006368002BD0D1012002B0BDE8F081626894
:1042E000B2F5803F11D11A6842F480321A60FFF7AC
:1042F0001DF9814D06462B689A03BDD4FFF716F9C8
:10430000801B6428F7D90320E6E77B4DB2F5A02F88
:104310002B6807D143F480232B602B6843F4803350
:104320002B60E4E723F480332B602B6823F4802395
:104330002B60002ADBD1FFF7F9F806462B689B03B8
:104340009AD5FFF7F3F8801B6428F7D9DBE76A4BAF
:104350009A6812F00C0F10D09A6802F00C02082A2A
:1043600002D15B685F0208D5634A936803F00C03CF
:104370000C2B11D153685E020ED45F4B1A6895075F
:1043800002D5E268012AA6D11A68216922F0F80252
:1043900042EAC1021A6072E7E268584BB2B10122E8
:1043A0001A60FFF7C3F8544D06462B68980707D5E7
:1043B0002B68226923F0F80343EAC2032B605EE70F
:1043C000FFF7B4F8801B0228EFD99CE71A60FFF7CB
:1043D000ADF8494D06462B6899077FF550AFFFF7BA
:1043E000A5F8801B0228F6D98DE76269444B7AB1A3
:1043F00001221A60FFF79AF83F4D06466B6F9F0740
:104400003FF541AFFFF792F8801B0228F6D97AE713
:104410001A60FFF78BF8384D06466B6F98077FF5EB
:1044200032AFFFF783F8801B0228F6D96BE7324BD7
:104430001A6C12F0805228D101921A6C42F080520C
:104440001A641B6C03F080530193019B01262D4DD0
:104450002B68D9051BD5A368274D012B27D12B6FBE
:1044600043F001032B67FFF761F8234D074641F244
:1044700088382B6F9B0739D5002E3FF408AF1E4AB2
:10448000136C23F08053136401E70026DFE72B68E9
:1044900043F480732B60FFF749F807462B68DA0571
:1044A000D9D4FFF743F8C01B0228F7D92BE7052B17
:1044B00004D12B6F43F004032B67D0E72A6F22F05F
:1044C00001022A672A6F22F004022A67002BCAD150
:1044D000FFF72CF841F2883807462B6F9807CBD5A9
:1044E000FFF724F8C01B4045F7D90CE7FFF71EF88B
:1044F000C01B4045BDD906E70038024000004742D6
:10450000800E474200700040234DAB6803F00C035F
:10451000082B3FF4E0AE214E0023022A33602DD158
:10452000FFF704F807462B68990121D4226AE36952
:104530001343626A43EA8213E26A43EA0263226B2C
:1045400043EA0273A26A144C5208013A43EA024356
:104550006B6001233360FEF7E9FF054623689A018B
:104560003FF599AEFEF7E2FF401B0228F6D9CAE6F6
:10457000FEF7DCFFC01B0228D5D9C4E6FEF7D6FF44
:1045800004462B689B017FF586AEFEF7CFFF001B2C
:104590000228F6D9B7E600BF003802406000474263
:1045A0002DE9F0470668C2683369C16923F44053B6
:1045B00013433361044683680069F268034360690A
:1045C00022F41642034322F00C020B431343F36020
:1045D0007369A26923F440731343B1F5004F73610B
:1045E0007A4B7CD19E4203D003F580639E4244D136
:1045F000FFF7E4FD192505FB00F360684FF064093F
:104600004000B3FBF0F3B3FBF9F34FEA0318FFF7F5
:10461000D5FD636868435B00B0FBF3F7FFF7CEFDA1
:10462000636868435B00B0FBF3F3B3FBF9F309FB8A
:104630001373DB003233B3FBF9F35B0003F4F87759
:10464000FFF7BCFD626868435200B0FBF2FAFFF767
:10465000B5FD636868435B00B0FBF3F3B3FBF9F3AC
:1046600009FB13A3DB003233B3FBF9F303F00703B9
:1046700043443B44B360BDE8F087FFF78FFD192545
:1046800005FB00F360684FF064094000B3FBF0F3F2
:10469000B3FBF9F34FEA0318FFF780FD6368684343
:1046A0005B00B0FBF3F7FFF779FD636868435B00DD
:1046B000B0FBF3F3B3FBF9F309FB1373DB00323305
:1046C000B3FBF9F35B0003F4F877FFF767FD62686B
:1046D00068435200B0FBF2FAFFF760FDB9E79E4273
:1046E00002D03B4B9E4240D1FFF768FD6768192519
:1046F0004FF0640905FB00F3BF00B3FBF7F3B3FB16
:10470000F9F31F01FFF75AFD636868439B00B0FB94
:10471000F3F8FFF753FD636868439B00B0FBF3F3C6
:10472000B3FBF9F309FB13831B013233B3FBF9F33A
:1047300003F0F008FFF742FD626868439200B0FBA7
:10474000F2FAFFF73BFD636868439B00B0FBF3F3AD
:10475000B3FBF9F309FB13A31B013233B3FBF9F3EA
:1047600003F00F0343EA080383E7FFF717FD6768C9
:1047700019254FF0640905FB00F3BF00B3FBF7F305
:10478000B3FBF9F31F01FFF709FD636868439B0062
:10479000B0FBF3F8FFF702FD636868439B00B0FBD2
:1047A000F3F3B3FBF9F309FB13831B013233B3FBC0
:1047B000F9F303F0F008FFF7F1FC62686843920038
:1047C000B0FBF2FAFFF7EAFCBDE700BF00100140C2
:1047D00000140140F8B504460E4617461D462168F0
:1047E0000B6836EA030301D10020F8BD6B1CF7D03B
:1047F00095B92368DA6822F4D072DA605A6922F037
:1048000001025A61202384F8393084F83A300023B9
:1048100084F838300320F8BDFEF788FEC01B8542BF
:10482000DDD2E6E710B5044640B390F8393003F026
:10483000FF021BB980F8382000F0D0FD2268242345
:1048400084F83930D36823F40053D3602046FFF74F
:10485000A7FE23681A6922F490421A615A6922F06D
:104860002A025A61DA6842F40052DA6000202023FA
:10487000E06384F8393084F83A3010BD012010BD6F
:104880002DE9F0411F4690F83930202B04460D46A3
:1048900090464FD100294AD0002A48D090F83830AD
:1048A000012B47D0012380F838300023C363212334
:1048B00080F83930FEF73AFEA4F824800646A4F8C2
:1048C0002680E38C9BB26BB93B46324640212046A2
:1048D000FFF780FFB0B9202384F8393084F838001E
:1048E000BDE8F081E38C013B9BB2E384A368B3F5A0
:1048F000805F32463B464FF0800120460ED1FFF7E5
:1049000069FF10B10320BDE8F0812B882268C3F352
:1049100008035360236943B90235D2E7FFF75AFF12
:104920000028EFD123682A785A600135C9E70120B1
:10493000BDE8F0810220BDE8F0810000004870472A
:10494000987500082DE9F041A0B00F46FBF7F7FC81
:104950000446002F6ED000286ED0FBF78AFC8046FC
:10496000FBF79FFC0690FBF7B6FC0A90FBF7CDFC2B
:1049700004F124030B900FCB16AE86E80F0004F170
:1049800014030FCB1AAE86E80F006068E26B0025B7
:10499000002A48D1294B0193294B0293294B0393B9
:1049A000294B0493294B0793012303218DF82430CD
:1049B0008DF8253043F65834ADF83430ADF8363044
:1049C000ADF83830ADF83A301093ADF84830ADF866
:1049D0004A30ADF84C30ADF84E3004238DF820103D
:1049E0008DF821108DF822208DF823208DF82620B7
:1049F0008DF827200C94ADF83E10119215921F905F
:104A000018247C220DEB03013846CDF81480ADF854
:104A10003C4014931E9500F05EFF281C18BF012037
:104A200020B0BDE8F081936801359A4214BF1A4660
:104A30000022ADE73846F3E7F2E700BFF8B200081E
:104A400000B3000821B300083AB300084FB30008D0
:104A500008B5FBF799FC08BD07B5002301930123B6
:104A60000093034AFBF7B8FC03B05DF804FB00BFFA
:104A7000F0030020FBF7EEBC10B50C46FBF709FD78
:104A8000002858D02C4AE3681168936041F0004137
:104A90001160D360294A116841F00041116003F5AB
:104AA000C0619160D160264A116841F000411160F7
:104AB00003F5CC619160D160224A116841F0004158
:104AC000116003F5715120319160D1601E4A116867
:104AD00041F00041116003F5725110319160D160D5
:104AE0001A4A116803F57553103341F00041936081
:104AF000D36011608268E36942F400728260144AF4
:104B000000219160D1600333124A134923F003035B
:104B10009360D360114A9360D36003F510628A609A
:104B2000CA600F498A60CA600E4A9360D3600E4A19
:104B300001209360D36010BDE0010020F000002050
:104B4000E002002014020020E003002014030020F3
:104B50005C04002078010020AC020020AC010020A1
:104B600078020020AC03002078030020FBF7DCBCB7
:104B700010B5141E0ADA0138012807D900F0F6FC36
:104B8000092303604FF0FF34204610BDA2B24FF05E
:104B9000FF330348FFF774FE002818BF0024F3E733
:104BA000B01000201FB564238DF80C008DF80D1097
:104BB000009303AA0223A6210248FFF73FF805B09D
:104BC0005DF804FB541000201FB564230293064BCC
:104BD0000191009302460123A6210448FFF7FCF847
:104BE00005B05DF804FB00BF4A10002054100020FF
:104BF00008B501210020FFF7E7FF00212D20FFF776
:104C0000D1FF08212D20FFF7CDFF00213120BDE885
:104C10000840FFF7C7BF000008B500F05DFB05497D
:104C2000054800F017FFFFF7E3FFBDE8084000F07C
:104C3000FDB800BF6CB3000874B3000800000000AA
:104C400070B506213220FFF7BFFF2F4B2F4C5A784B
:104C500018789E781D7940EA02202D4A00B2108013
:104C6000DA7846EA02262B4A36B216805A792A4B5F
:104C700045EA02252DB21D80FDF7FCFE20A3D3E9F5
:104C80000023FDF75DFFFEF7F5F920603046FDF7E4
:104C9000F1FE1BA3D3E90023FDF752FFFEF7EAF96B
:104CA00060602846FDF7E6FE15A3D3E90023FDF773
:104CB00047FFFEF7DFF9A0603220FEF73DFC94EDE0
:104CC000000AD4ED010A94ED021A00F01FFA03283D
:104CD00011D8DFE800F0020A0C0E104800F0BAFE0E
:104CE0000F48BDE8704000F029BF0E48F6E70E48B7
:104CF000F4E70E48F2E70E48F0E700BFAFF300809C
:104D00002B8716D9CEF7A33F4A1000203405002088
:104D100048100020521000205010002083B30008DB
:104D2000EEB300088AB3000891B3000898B30008F6
:104D30009FB30008F0B58A88CB888E680C8803FB87
:104D400002F585B075439CB1012C13D0102C13D003
:104D5000322C13D00A4F0B49312C18BF394602911F
:104D6000019501460096084800F074FE05B0F0BDBC
:104D70000649F4E70649F2E70649F0E70649EEE797
:104D800006B80008F2B700080EB800089CB7000883
:104D9000B2B70008C9B70008DDB700081F4A9FED89
:104DA000206A9FED207A00F110011346F0EC017AA1
:104DB000D2ED006A67EE867A8142E6EE877AE2EC0F
:104DC000017AF3D1D3ED007A9FED177AF4EEC77A2A
:104DD000F1EE10FAD8BFF0EE477A93ED017AF4EED7
:104DE000C77AF1EE10FA58BFB0EE677AD3ED027AC7
:104DF000B4EEE77A4CBF01200020F1EE10FA58BF64
:104E0000F0EE477A93ED037AB4EE677A48BF02205A
:104E1000F1EE10FAC8BF0320704700BF940F0020C6
:104E2000CDCC4C3ECDCC4C3F286B6ECE2DE9F04125
:104E3000904D2C688CB02E463CB18F4800F07EFE21
:104E40004FF0FF300CB0BDE8F0818C4F8C48FF2351
:104E500001213B702246234600F0FCFD894B039460
:104E60001A6B894842F480521A631B6B03F4805317
:104E70000393039B00F062FE21462846FFF7ECFDFA
:104E800010F0FF0207D0030A8049814800F0E2FDDC
:104E90006FF00200D6E77F4C28682146FFF752FDED
:104EA0008046002800F094807B4800F047FE21688F
:104EB0007A4800F0CFFD6168794800F0CBFDA16829
:104EC000784800F0C7FDE168774800F0C3FDA17D98
:104ED000637D227D00912169744800F0BBFDA17FB4
:104EE000227F637F0091A169714800F0B3FD714892
:104EF00000F024FEA16F704800F0ACFD616F6F48B8
:104F000000F0A8FDE16A6E4800F0A4FDB4F8581066
:104F1000B4F85A306B484B43E16D594300F09AFDA9
:104F2000B4F86810B4F86A3067484B43E16E5943EF
:104F300000F090FD628E218E644800F08BFD04F13C
:104F400034016348FFF7F6FE04F144016148FFF7BE
:104F5000F1FEB4F85A30B4F858205A43E36D40F6E5
:104F6000341153438B420AD05B4800F073FD414833
:104F7000FFF780FD002333606FF0040062E7B4F8B0
:104F80006A30B4F868205A43E36E43F660515343E5
:104F90008B4201D05148E8E7236BB3F1011F03D0E6
:104FA0004F4800F0CBFDE2E74E4B1A88012A03D1AF
:104FB0004D4A1288012A01D04C48F2E7DA88032AC8
:104FC00001D04B48EDE79B88182B19D04948E8E7FA
:104FD0002868FFF73DFD4849030AC2B22C4800F09B
:104FE00039FD2846FFF746FDC5F800806FF0030045
:104FF00028E7FF2341483B7000F0A0FD002021E797
:105000003F4800F09BFD48F210030124ADF810303A
:1050100043F66053ADF81240ADF81440ADF81640B9
:105020000693FFF78BFC1023ADF8203040F63413C5
:1050300007900A9304A9334B2868ADF82240ADF8D5
:105040002440ADF826400B93FFF716FD04460028D8
:10505000CFD13068FFF7FCFC2B49030AC2B20C48E1
:1050600000F0F8FC0348FFF705FD34606FF0050021
:10507000E8E600BFA80F0020CBB300086C040020B6
:10508000F0B30008003802401DB4000836B4000830
:1050900048B40008BC0F00206DB4000887B40008B5
:1050A000A2B40008BDB40008D8B40008F3B40008E6
:1050B00019B500083FB5000850B500086EB50008E6
:1050C0008AB50008ABB50008CDB50008EFB50008FB
:1050D0000DB6000823B6000839B6000878B60008F7
:1050E000B4B600087004002080040020E0B6000878
:1050F00006B7000821B700083EB7000862B70008ED
:105100007FB700084005002052B700087FB51B4E4E
:10511000306828B91A4800F011FDFF2004B070BDB6
:105120001849194A0B68194D02EB830484ED000AF3
:10513000C4ED010ADC1C472C02EB83030C6083EDF9
:10514000021A0C4617D91249124BCA60124AD36090
:10515000FFF70CFD012808D03068FFF779FC0F49F4
:10516000030AC2B20E4800F075FC0A48FFF716FEAB
:105170000023287023602878D0E700BFA80F002004
:10518000A4B30008A40F0020740E00206C040020BB
:1051900070040020AC0F002080040020BCB3000885
:1051A00048B4000830B595B03422002107A800F0BB
:1051B0009DFB0021142202A800F098FB00251E4B45
:1051C00000951A6C42F080521A641B6C03F08053F5
:1051D0000093009B194B01951A6842F440421A60F3
:1051E0001B6803F440430193019B012307934FF491
:1051F000803308934FF480030E93042302240F930B
:1052000007A8B42310930D94119412941394FFF7EC
:105210002DF8FEF7EDFE0F2302934FF4A0530593F4
:1052200005214FF4805302A8039404950693FEF7DA
:105230001BFF15B030BD00BF0038024000700040B9
:105240001FB5FEF74DF90024FFF7ACFF1C4B01948E
:105250001A6B1C4842F080021A631A6B02F080023B
:105260000192019A02941A6B42F001021A631A6BBE
:1052700002F001020292029A03941A6B42F00202B7
:105280001A631B6B03F002030393039B0E4B036033
:10529000FEF7C2F90D480E4A0E4B846080E80C0000
:1052A0004FF480430361C46044618461C46104625B
:1052B000FEF720FCFFF7B0FCFFF7C2FCFCE700BFE5
:1052C00000380240A8100020003002405410002096
:1052D00000540040801A06000748084B4FF4165C43
:1052E00080E808100C2200238360C36003614261E0
:1052F0008361C361FFF796BAB010002000440040FC
:1053000082B00C4B002100915A6C42F480425A64E6
:105310005A6C02F480420092009A01911A6C42F099
:1053200080521A641B6C03F080530193019B02B0FE
:10533000704700BF003802400268094B9A4282B0B1
:105340000BD100230193074B1A6B42F480521A636E
:105350001B6B03F480530193019B02B0704700BFA5
:10536000003002400038024030B5044689B01422B3
:10537000002103A800F0BAFA2268154B9A4224D102
:10538000144C154800250195236B43F00203236359
:10539000236B03F002030193019B4FF440730393CB
:1053A00012230493012305930323069303A90423E3
:1053B0000793FEF743F90295236C43F4001323642B
:1053C000236C03F400130293029B09B030BD00BFAD
:1053D00000540040003802400004024010B504466A
:1053E00088B01422002103A800F080FA2268154B2F
:1053F0009A4224D103F5FA33002101911A6C124824
:1054000042F400321A641A6C02F400320192019ADA
:1054100002911A6B42F001021A631B6B03F0010345
:105420000293029B0C23039302230493012305930D
:105430000323069303A907230793FEF7FFF808B099
:1054400010BD00BF00440040000002407047FEE76E
:10545000FEE7FEE7FEE7704770477047FEF75AB871
:1054600070B50E4615460C46A31B9D4201DC28462E
:1054700070BDAFF3008004F8010BF5E708B50A4BE7
:105480001968024609B90949196018686946024451
:105490008A4206D900F06AF80C2303604FF0FF300F
:1054A00008BD1A6008BD00BF38100020F4100020AD
:1054B0004FF0FF3070474FF400534B6000207047AF
:1054C00001207047002070470F49D1F8883043F41D
:1054D0007003C1F888300D4B1A68002042F00102B9
:1054E0001A6098601A6822F0847222F480321A607E
:1054F000074A5A601A6822F480221A60D8604FF076
:1055000000638B60704700BF00ED00E00038024090
:1055100010300024DFF834D0002103E00C4B5B583E
:10552000435004310B480C4B42189A42F6D30B4AB5
:1055300002E0002342F8043B094B9A42F9D3FFF7FB
:10554000C3FF00F095F9FFF77BFE704700000220D3
:1055500048B9000800000020FC040020FC040020E2
:10556000F4100020FEE700F0B6B90000014B186807
:10557000704700BF940400208A892DE9F041054658
:1055800010070C465AD44B68002B05DC0B6C002B23
:1055900002DC0020BDE8F081E66A002EF9D000238D
:1055A00012F480522F682B6033D0606DA3895A07A4
:1055B00005D56368C01A636B0BB1236CC01A002356
:1055C0000246E66A216A2846B047431CA38906D1F1
:1055D00029681D294BD82B4ACA40D60747D5002237
:1055E0006260D9042269226004D5421C01D12B6873
:1055F00003B96065616B2F600029CAD004F14403D0
:10560000994202D0284600F079F900206063BDE895
:10561000F081216A01232846B047411CC6D12B687E
:10562000002BC3D01D2B01D0162B01D12F60B0E76A
:10563000A38943F04003A381BDE8F0810F69002FE7
:10564000A7D093070E6808BF4B690F6018BF0023EF
:10565000A6EB07088B60B8F1000F9ADD43463A4687
:10566000216AA66A2846B047002807DCA38943F0D0
:105670004003A3814FF0FF30BDE8F0810744A8EB61
:105680000008E8E70100402038B50B6905460C46E4
:10569000DBB118B183690BB900F060F80C4B9C4288
:1056A00009D16C68B4F90C307BB121462846BDE8BD
:1056B0003840FFF761BF074B9C4201D1AC68F1E76E
:1056C000054B9C4208BFEC68ECE7002038BD00BFEA
:1056D00070B8000890B8000850B80008014900F000
:1056E000A9B800BF89560008002310B5044603601E
:1056F0004360836081814366C2810361436183614A
:10570000194608225C3000F0F1F8054B6362054B46
:10571000A362054BE362054B2462236310BD00BF07
:105720006D5B00088F5B0008C75B0008EB5B00083F
:1057300070B54A1E682555430E4605F1740100F008
:105740002BF9044640B1002180E842000C30A060F3
:1057500005F1680200F0CAF8204670BD836910B5F3
:10576000044633BB8364C3640365124B124A1B684F
:105770008262984204BF0123836100F01FF86060D9
:10578000204600F01BF8A060204600F017F8002229
:10579000E06004216068FFF7A7FF01220921A068EB
:1057A000FFF7A2FF02221221E068FFF79DFF01230D
:1057B000A36110BDB0B80008DD560008F8B51C4B59
:1057C0001E68B369074613B93046FFF7C7FF48366E
:1057D000B4687368013B03D5336833B13668F7E7C3
:1057E000B4F90C506DB16834F4E704213846FFF782
:1057F0009FFF30600028F1D10C233B600446204617
:10580000F8BD4FF6FF73E3810123A3816566256030
:10581000A560656025616561A5610822294604F1DE
:105820005C0000F063F86563A563A564E564E6E7E2
:10583000B0B800082DE9F8438046894600F14804D5
:10584000002614B93046BDE8F883A5686768013FB3
:1058500001D52468F5E7AB89012B07D9B5F90E30DE
:10586000013303D029464046C84706436835EEE772
:1058700070B50D4E0D4CA41BA4100025A54209D1F6
:105880000B4E0C4C01F07AFEA41BA4100025A5427F
:1058900005D170BD56F8253098470135EEE756F82A
:1058A000253098470135F2E740B9000840B90008B3
:1058B00040B9000844B9000810B5013902449042CB
:1058C00001D1002010BD10F8013B11F8014FA34297
:1058D000F5D0181B10BD10B5431E0A44914200D1EB
:1058E00010BD11F8014B03F8014FF7E702440346DE
:1058F000934200D1704703F8011BF9E738B505461C
:10590000002945D051F8043C0C1F002BB8BFE41807
:1059100000F0C8FA1F4A1368104633B96360146078
:105920002846BDE8384000F0BEBAA3420CD9216831
:105930006218934204BF1A685B68636004BF521820
:1059400022600460ECE713465A680AB1A242FAD911
:1059500019685818A0420BD1206801445818824297
:105960001960DDD1106852685A6001441960D7E7A8
:1059700002D90C232B60D3E7206821188A4204BF88
:1059800011685268626004BF091821605C60C7E753
:1059900038BD00BF3C10002070B5CD1C25F00305BC
:1059A00008350C2D38BF0C25002D064601DBA94219
:1059B00003D90C233360002070BD00F073FA234A32
:1059C0001468214691B9224C23681BB9304600F077
:1059D000BDF820602946304600F0B8F8431C26D1B7
:1059E0000C233360304600F05EFAE4E70B685B1B83
:1059F0001AD40B2B0FD90B60CD50CC18304600F0C9
:105A000052FA04F10B00231D20F00700C31A1BD02B
:105A10005A42E25070BD8C420DBF63684B686360B0
:105A2000136018BF0C46E9E70C464968CAE7C41C76
:105A300024F00304A04205D0211A304600F086F875
:105A40000130CDD02560D9E770BD00BF3C100020EB
:105A5000401000200FB40A4B13B51C6824B1A36991
:105A600013B92046FFF77AFE05AB049AA1680193AB
:105A7000204600F043FA02B0BDE8104004B0704781
:105A80009404002070B50E46054618B183690BB921
:105A9000FFF764FEAB69AC6813B92846FFF75EFEFA
:105AA000234B9C4217D16C68A3891B071DD5236922
:105AB000DBB1013EA36816F8011F013BA360E9B901
:105AC000002B2EDA22460A21284600F093F80130F6
:105AD00011D00A2070BD174B9C4201D1AC68E3E79E
