:020000040800F2
:1000000000000220CD260008592600085B260008C3
:100010005D2600085F260008612600080000000039
:10002000000000000000000000000000632600083F
:100030006526000800000000672600086926000801
:100040001D2700081D2700081D2700081D27000880
:100050001D2700081D2700081D2700081D27000870
:100060001D2700081D2700081D2700081D27000860
:100070001D2700081D2700081D2700081D27000850
:100080001D2700081D2700081D2700081D27000840
:100090001D2700081D2700081D2700081D27000830
:1000A0001D2700081D2700081D2700081D27000820
:1000B0001D2700081D2700081D2700081D27000810
:1000C0001D2700081D2700081D2700081D27000800
:1000D0001D2700081D270008712600081D2700089D
:1000E0001D2700081D2700081D2700081D270008E0
:1000F0001D2700081D2700081D2700081D270008D0
:100100001D2700081D2700081D2700081D270008BF
:100110001D2700081D2700081D2700081D270008AF
:100120001D2700081D2700081D2700081D2700089F
:100130001D27000800000000000000001D27000827
:100140001D2700081D2700081D2700081D2700087F
:100150001D2700081D2700081D2700081D2700086F
:100160001D2700081D2700081D2700081D2700085F
:100170001D2700081D2700081D270008000000009B
:10018000000000001D270008000000000000000023
:100190001D27000800000000000000001D270008C7
:1001A0000000000000000000000000001D27000803
:1001B0001D2700081D2700081D2700081D2700080F
:0401C0001D270008EF
:1001C40010B5054C237833B9044B13B10448AFF38D
:1001D40000800123237010BD0C00002000000000EB
:1001E4007827000808B5034B1BB103490348AFF354
:1001F400008008BD000000001000002078270008DF
:1002040053B94AB9002908BF00281CBF4FF0FF3179
:100214004FF0FF3000F07AB9ADF1080C6DE904CE6F
:1002240000F006F8DDF804E0DDE9022304B07047CD
:100234002DE9F0478C460D460446089E002B51D10B
:100244008A4217466DD9B2FA82FEBEF1000F0BD076
:10025400CEF1200C01FA0EF520FA0CFC02FA0EF78E
:100264004CEA050C00FA0EF44FEA174A250CBCFBC5
:10027400FAF81FFA87F90AFB18CC45EA0C4508FB83
:1002840009F3AB420AD9ED1908F1FF3280F023815A
:10029400AB4240F22081A8F102083D44ED1AA4B219
:1002A400B5FBFAF00AFB105544EA054400FB09F9D2
:1002B400A14509D9E41900F1FF3380F00A81A14571
:1002C40040F2078102383C44A4EB090440EA0840A8
:1002D4000021002E61D024FA0EF4002334607360F0
:1002E400BDE8F0878B4207D9002E54D0002186E860
:1002F40021000846BDE8F087B3FA83F1002940F0F5
:100304008E80AB4202D3824200F2FA80841A65EBFB
:1003140003050120AC46002E3FD086E81010BDE84E
:10032400F08712B90127B7FBF2F7B7FA87FEBEF1DF
:10033400000F34D1EB1B3A0C1FFA87FC0121B3FBED
:10034400F2F8250C02FB183345EA03450CFB08F3CD
:10035400AB4207D9ED1908F1FF3002D2AB4200F2EB
:10036400D1808046ED1AA3B2B5FBF2F002FB105522
:1003740043EA05440CFB00FCA44507D9E41900F149
:10038400FF3302D2A44500F2B8801846A4EB0C0453
:1003940040EA08409DE731463046BDE8F087CEF19B
:1003A400200405FA0EF307FA0EF720FA04F83A0CC3
:1003B40025FA04F448EA0308B4FBF2F14FEA1845BD
:1003C40002FB11441FFA87FC45EA044501FB0CF3C8
:1003D400AB4200FA0EF409D9ED1901F1FF3080F0B7
:1003E4008A80AB4240F2878002393D44EB1A1FFAFF
:1003F40088F5B3FBF2F002FB103345EA034500FB3A
:100404000CF3AB4207D9ED1900F1FF386FD2AB42C0
:100414006DD902383D44EB1A40EA01418FE7C1F13E
:10042400200722FA07F88B4005FA01F448EA03038F
:1004340020FA07FE4FEA134CFD404EEA040EB5FBCA
:10044400FCF94FEA1E440CFB19551FFA83F844EAE1
:10045400054509FB08F4AC4202FA01F200FA01FA7C
:1004640008D9ED1809F1FF3043D2AC4241D9A9F1C2
:1004740002091D442D1B1FFA8EFEB5FBFCF00CFB7C
:1004840010554EEA054400FB08F8A04507D9E418C6
:1004940000F1FF3529D2A04527D902381C4440EA8F
:1004A4000940A4EB0804A0FB02894C45C6464D460E
:1004B40015D312D056B1BAEB0E0364EB050404FA5B
:1004C40007F7CB401F43CC40376074600021BDE880
:1004D400F0871846F8E69046E0E6C245EAD2B8EB63
:1004E400020E69EB03050138E4E72846D7E74046E6
:1004F40091E78146BEE7014678E702383C4445E788
:10050400084608E7A8F102083D442BE7704700BFFE
:1005140010B504460E4B18784FF47A73B3FBF0F31E
:100524000C4A1068B0FBF3F000F0AAF868B90F2C7D
:1005340001D9012010BD002221464FF0FF3000F008
:100544005FF8034B5C60002010BD012010BD00BFAC
:10055400000000200800002008B50B4B1A6842F484
:1005640000721A601A6842F480621A601A6842F4CF
:1005740080721A60032000F031F80020FFF7C8FFF2
:1005840001F0CEFF002008BD003C024008B5044A3B
:100594001168044B1B780B44136001F0F5FE08BD91
:1005A4003400002000000020014B1868704700BF91
:1005B4003400002038B50446FFF7F6FF0546B4F1D1
:1005C400FF3F02D0044B1B781C44FFF7EDFF401B98
:1005D4008442FAD838BD00BF00000020074AD3681F
:1005E40023F4E0631B041B0C000200F4E0601843D6
:1005F40040F0BF6040F40030D060704700ED00E090
:1006040030B4164BDB68C3F30223C3F10704042C94
:1006140028BF04241D1D062D17D9033B012505FA07
:1006240004F4013C2140994005FA03F3013B1340D3
:10063400194300280BDB0901C9B200F1604000F541
:10064400614080F8001330BC70470023E6E700F0F7
:100654000F000901C9B2024B1954F4E700ED00E0A0
:1006640014ED00E0002808DB420900F01F0001231C
:1006740003FA00F0014B43F82200704700E100E068
:100684000138B0F1807F0AD2064B5860F021064A47
:1006940082F823100020986007221A607047012016
:1006A400704700BF10E000E000ED00E090F8353046
:1006B400DBB2022B03D0802343650120704705235E
:1006C40080F835300268136823F0010313600020BA
:1006D40070470000F0B583B0002498E04FEAD40ED0
:1006E4000EF1080E50F82E2004F00706B6000F276E
:1006F400B74022EA07020F6907FA06F6324340F8C8
:100704002E2094E086681640CF6807FA0EF73E4321
:100714008660466826EA03034E68C6F30016A640C0
:1007240033434360C3681A408B6803FA0EF31A43D9
:10073400C2604B6813F0805F68D000230193514B73
:100744005A6C42F480425A645B6C03F48043019314
:10075400019BA3089E1C4C4A52F8262004F0030671
:100764004FEA860E0F2606FA0EF622EA0602474FD5
:10077400B84279D0464EB04278D006F58066B04291
:1007840076D006F58066B04274D006F58066B04235
:1007940072D006F58066B04270D006F58066B0422D
:1007A40060D0072606FA0EF632430233364E46F878
:1007B4002320384B1A68EB4302EA03064F6817F408
:1007C400803F01D045EA0206324A1660526803EAC5
:1007D40002064F6817F4003F01D045EA02062D4A8D
:1007E4005660926803EA02064F6817F4801F01D02E
:1007F40045EA0206274A9660D26813404E6816F40A
:10080400001F01D045EA0203224AD36001340F2CB1
:1008140036D80123A3400A6803EA0205AB42F5D1A6
:100824004A68022A3FF45AAF122A3FF457AF0668C7
:100834004FEA440E032202FA0EF2D24316404F68E6
:1008440007F0030707FA0EF73E4306604E68771E6B
:10085400012F7FF657AF112E3FF454AF122E7FF4C1
:1008640061AF4FE706269DE700269BE7012699E73F
:10087400022697E7032695E7042693E7052691E7E2
:1008840003B0F0BD003802400038014000000240CF
:1008940000040240003C014003685A6912F4806F6E
:1008A40011D06FF480625A6100230363202280F820
:1008B4003D2080F83E30026C42F00402026480F86D
:1008C4003C300120704700207047F8B506460C46BE
:1008D40017461D4622E0FFF767FE069BC01A8542B5
:1008E40000D3DDB900233363202286F83D2086F847
:1008F4003E30326C42F02002326486F83C300120F3
:10090400F8BD33685B6924EA03039BB2B3FA83F34B
:100914005B09BB420FD1B5F1FF3FDCD1C4F3074300
:10092400012BEED033689B6924EA03039BB2B3FA2C
:1009340083F35B09EDE70020F8BDF8B504460D46E6
:1009440016461F463CE01A6842F400721A60236897
:100954006FF480625A6100232363202284F83D20CF
:1009640084F83E30226C42F00402226484F83C3065
:100974000120F8BDFFF718FEC01B864200D3FEB964
:1009840000232363202284F83D2084F83E30226C27
:1009940042F02002226484F83C300120F8BD236830
:1009A4005B6925EA03039BB2003318BF0123A3B19B
:1009B40023685A6912F4806FC5D1B6F1FF3FD9D1CB
:1009C400C5F30743012BEAD023689B6925EA030397
:1009D4009BB2003318BF0123E9E70020F8BD0000F3
:1009E400F0B583B004460F4615461E46C36A082B6D
:1009F4000DD0012B0BD013F5803F08D0036B122BC5
:100A04000AD10268136843F48073136004E0226817
:100A1400136843F48073136000962B4600224FF052
:100A240001112046FFF751FF18BB2369B3F5804F2E
:100A340011D02268FB1103F0060343F0F0031361A5
:100A440033462A460E492046FFF777FFA8B92368A4
:100A5400FFB21F6103E0236807F0FE071F613346FE
:100A64002A4608492046FFF768FF034610B10123D0
:100A740000E00123184603B0F0BD0123FAE700BFEC
:100A8400080001000200010070B504460D46164638
:100A940023685B6913F0800F1CD12046FFF7FCFE2E
:100AA400D0B9B5F1FF3FF3D0FFF77EFD801B85423F
:100AB40001D3002DECD100232363202284F83D20B0
:100AC40084F83E30226C42F02002226484F83C30E8
:100AD400012070BD002070BD012070BD2DE9F041E2
:100AE40084B004460E46174698460B9D0268136868
:100AF40043F4806313600268136843F480731360E3
:100B040000950A9B00224FF00111FFF7DEFE20B191
:100B14000123184604B0BDE8F0812368F6B206F05C
:100B2400FE021A612B460A9A38492046FFF705FF50
:100B340008B10123EDE70023039323685A69039264
:100B44009B690393039B2A460A992046FFF79CFF5F
:100B540058B1236C042B01D00123DAE7226813680F
:100B640043F4007313600123D3E7B8F1010F0DD0F0
:100B740023683A0A1A612A460A992046FFF784FF35
:100B8400C8B1236C042B0FD00123C2E72368FFB242
:100B94001F612A460A992046FFF776FFB0B1236CFD
:100BA400042B0CD00123B4E72268136843F40073C8
:100BB40013600123ADE72368FFB21F61E9E72268F0
:100BC400136843F4007313600123A2E722681368D7
:100BD40043F48073136000950A9B00224FF00111C7
:100BE4002046FFF772FE08B1012392E7236846F01E
:100BF40001061E612B460A9A04492046FFF79DFE12
:100C04000346002885D0012383E700BF02000100CA
:100C140070B504460D46164623685B6913F0040F4D
:100C24001CD12046FFF738FED0B9B5F1FF3FF3D011
:100C3400FFF7BAFC801B854201D3002DECD10023C1
:100C44002363202284F83D2084F83E30226C42F055
:100C54002002226484F83C30012070BD002070BD65
:100C6400012070BD70B505460C4616462B685A69BE
:100C740012F0400F29D15A6912F0100F15D1FFF765
:100C840093FC801BA04201D8002CEFD100232B63DE
:100C9400202285F83D2085F83E302A6C42F020025F
:100CA4002A6485F83C30012070BD6FF010025A614F
:100CB40000232B63202285F83D2085F83E302A6CE2
:100CC4002A6485F83C30012070BD002070BD00000E
:100CD400002800F0BE80F8B5044690F83D30002BA3
:100CE4006BD0242384F83D302268136823F0010379
:100CF400136000F0D7FB6268584B9A4262D8584B95
:100D040098428CBF00230123002B40F0A480554B54
:100D1400A3FB00239A0C21684B6823F03F03134381
:100D24004B602568296A21F03F0166684B4B9E425F
:100D34004ED8531C0B432B622268D16921F44F41D6
:100D440021F0FF016368454DAB424BD801385B008D
:100D5400B0FBF3F30133C3F30B03042B38BF0423B9
:100D64000B43D36121680B6823F0C003E269206A56
:100D7400024313430B6021688B6823F4034323F07D
:100D8400FF032269E068024313438B602168CB6848
:100D940023F0FF036269A06902431343CB60226816
:100DA400136843F00103136000202064202384F8B7
:100DB4003D30206384F83E00F8BD80F83C3001F0FB
:100DC400CFFB8EE7284B98428CBF002301239BE77F
:100DD4004FF4967303FB02F3244AA2FB03239B09FB
:100DE4000133A7E7A668BEB9451E03EB4307B5FB6D
:100DF400F7F50135C5F30B05B5FA85F56D0935BB76
:100E0400C6B9013803EB4303B0FBF3F30133C3F377
:100E14000B0343F40043A3E7451E03EB830707EBEF
:100E24008707B5FBF7F50135C5F30B05B5FA85F56D
:100E34006D09E4E7013803EB830303EB8303B0FBA1
:100E4400F3F30133C3F30B0343F4404388E7012373
:100E540086E7012070470120F8BD00BFA08601008D
:100E64007F841E0083DE1B43FF083D00D34D6210C8
:100E74002DE9F04184B004460D4690461F46FFF725
:100E840093FB94F83D30DBB2202B04D00225284696
:100E940004B0BDE8F08106460090192301224F49B1
:100EA4002046FFF712FD08B10225F0E794F83C3024
:100EB400012B00F08E80012384F83C3023681A68EB
:100EC40012F0010F03D11A6842F001021A6022687D
:100ED400136823F400631360212384F83D30102346
:100EE40084F83E3000232364C4F824806785638D2E
:100EF40023853B4BE36233460A9A29462046FFF793
:100F04006FFD0546002866D10023039323685A69C0
:100F140003929B690393039B12E0236C042B01D07F
:100F24000125B4E72268136843F4007313600125B4
:100F3400ADE732460A992046FFF76AFE00282ED113
:100F4400238D002B37D032460A992046FFF79CFDAB
:100F54000028E2D12368626A12781A61616A4B1C24
:100F64006362638D9BB2013B9BB26385238D013B1E
:100F74009BB223852268506910F0040FD9D0002B4E
:100F8400D7D04B781361636A01336362638D9BB27C
:100F9400013B9BB26385238D013B2385C9E7236C09
:100FA400042B01D0012572E72268136843F400730F
:100FB400136001256BE72268136843F40073136020
:100FC400202384F83D30002384F83E3084F83C30FC
:100FD4005DE702255BE7012559E700BF0200100029
:100FE4000000FFFF2DE9F04186B004460D46174688
:100FF4009846FFF7D9FA94F83D30DBB2202B04D0A1
:101004000225284606B0BDE8F08106460090192363
:10101400012288492046FFF758FC08B10225F0E771
:1010240094F83C30012B00F03D81012384F83C30DE
:1010340023681A6812F0010F03D11A6842F0010202
:101044001A602268136823F400631360222384F86F
:101054003D30402384F83E30002323640C9B6362BC
:10106400BDF834306385638D2385734BE362019649
:101074000E9B009343463A4629462046FFF72EFD31
:101084000546002840F01081238D5BB90293236844
:101094005A6902929A690292029A1A6842F4007298
:1010A4001A6075E0012B0AD0022B1AD00023059395
:1010B40023685A6905929B690593059B68E0226839
:1010C400136823F4806313600023039323685A692D
:1010D40003929A690392039A1A6842F400721A609E
:1010E40056E02268136823F480631360226813684F
:1010F40043F4006313600023049323685A69049241
:101104009B690493049B43E032460E992046FFF703
:10111400A9FD002840F0CA80636A226812691A7027
:10112400636A01336362238D013B2385638D9BB224
:10113400013B9BB263852BE000960E9B00223F4946
:101144002046FFF7C2FB002840F0B28022681368F3
:1011540043F400731360636A226812691A70626A46
:10116400531C6362238D013B2385638D9BB2013B3A
:101174009BB2638523681B695370636A013363629E
:10118400238D013B2385638D9BB2013B9BB2638519
:10119400238D002B7DD0032B52D8012BB4D0022BEE
:1011A400CAD000960E9B002224492046FFF78DFBEF
:1011B40000287FD12268136823F480631360636A74
:1011C400226812691A70636A01336362238D013BDA
:1011D4002385638D9BB2013B9BB2638500960E9B76
:1011E400002216492046FFF770FB002864D12268CC
:1011F400136843F400731360636A226812691A70F7
:10120400626A531C6362238D013B2385638D9BB209
:10121400013B9BB2638523681B695370636A013386
:101224006362238D013B2385638D9BB2013B9BB29B
:101234006385ADE7020010000000FFFF0400010019
:1012440032460E992046FFF70DFD002836D1636A19
:10125400226812691A70626A531C6362238D013B0F
:101264002385638D9BB2013B9BB2638523685969D7
:1012740011F0040F8CD01B695370636A01336362ED
:10128400238D013B2385638D9BB2013B9BB2638518
:101294007EE7202384F83D30002384F83E3084F830
:1012A4003C30AEE60225ACE60125AAE60125A8E617
:1012B4000125A6E60125A4E60125A2E60125A0E66E
:1012C40010B582B000230193194B1A6C42F080527E
:1012D4001A641B6C03F080530193019B0122154B8C
:1012E4001A60FFF761F90446134B5B6813F4803FFF
:1012F40008D1FFF759F9001BB0F57A7FF4D9032020
:1013040002B010BD01220D4B1A60FFF74DF90446DF
:10131400094B5B6813F4003F07D1FFF745F9001B45
:10132400B0F57A7FF4D90320EAE70020E8E700BFAC
:101334000038024040000E420070004044000E425B
:10134400002800F09D8070B504464F4B1B6803F0E5
:101354000F038B4209D2CBB24B4A1370136803F0CC
:101364000F03994201D0012070BD236813F0020FCE
:1013740017D013F0040F04D0444A936843F4E053A5
:101384009360236813F0080F04D0404A936843F431
:10139400604393603D4A936823F0F003A0680343DD
:1013A40093600D46236813F0010F32D06368012B5C
:1013B40021D09A1E012A25D9344A126812F0020F4C
:1013C40060D032498A6822F0030213438B60FFF72E
:1013D400EBF806462D4B9B6803F00C036268B3EBF5
:1013E400820F16D0FFF7E0F8801B41F28833984251
:1013F400F0D9032070BD254A126812F4003FE0D1F1
:10140400012070BD214A126812F0007FD9D1012059
:1014140070BD1D4B1B6803F00F039D4209D2EAB255
:10142400194B1A701B6803F00F039D4201D0012071
:1014340070BD236813F0040F06D0144A936823F494
:10144400E053E1680B439360236813F0080F07D05F
:101454000E4A936823F46043216943EAC10393600D
:1014640000F040F8094B9B68C3F30313084AD35CAC
:10147400D840084B18600020FFF74AF8002070BDE0
:1014840001207047012070BD003C0240003802403A
:101494009027000808000020014B1868704700BF1F
:1014A4000800002008B5FFF7F7FF044B9B68C3F35F
:1014B4008223034AD35CD84008BD00BF00380240F1
:1014C400A027000808B5FFF7E7FF044B9B68C3F3A8
:1014D4004233034AD35CD84008BD00BF0038024001
:1014E400A0270008F8B55C4B9B6803F00C03082B9D
:1014F40006D00C2B5AD0042B00F0AC805748F8BD12
:10150400554B5A6802F03F025B6813F4800F2AD0EF
:10151400514B5B68C3F388131E4600275C0100250A
:10152400E41A65EB0705A90141EA9461A001001BD7
:1015340061EB0501CB0043EA5073C400A01943EBEF
:1015440007014B0243EAD0534402204619460023C4
:10155400FEF756FE404B5B68C3F3014301335B0067
:10156400B0FBF3F0F8BD3C4B5B68C3F388131E4635
:1015740000275C010025E41A65EB0705A90141EA8F
:101584009461A001001B61EB0501CB0043EA507399
:10159400C400A01943EB07018B0243EA9053840271
:1015A400204619460023FEF72BFED3E72A4B5A6840
:1015B40002F03F025B6813F4800F28D0264B5B686F
:1015C400C3F388131E4600275C010025E41A65EB6B
:1015D4000705A90141EA9461A001001B61EB050123
:1015E400CB0043EA5073C400A01943EB07014B023C
:1015F40043EAD0534402204619460023FEF700FE76
:10160400154B5B68C3F30273B0FBF3F0F8BD124BE8
:101614005B68C3F388131E4600275C010025E41AA7
:1016240065EB0705A90141EA9461A001001B61EB88
:101634000501CB0043EA5073C400A01943EB070132
:101644008B0243EA90538402204619460023FEF796
:10165400D7FDD5E70248F8BD003802400024F40065
:1016640000127A0070B582B00446036813F0010FCB
:1016740041D0A64B9B6803F00C03042B32D0A34B40
:101684009B6803F00C03082B27D0A04B9B6803F046
:101694000C030C2B59D06368B3F5803F5BD0B3F5D2
:1016A400A02F5ED0994B1A6822F480321A601A680F
:1016B40022F480221A606368002B5CD0FEF774FF6A
:1016C4000546924B1B6813F4003F14D1FEF76CFFE0
:1016D400401B6428F5D903209DE18C4B5B6813F40F
:1016E400800FD2D0894B1B6813F4003F03D063688A
:1016F400002B00F08D81236813F0020F67D0834B19
:101704009B6813F00C0F4AD0804B9B6803F00C03CA
:10171400082B3FD07D4B9B6803F00C030C2B48D067
:10172400E368002B74D00122794B1A60FEF73CFF6A
:101734000546764B1B6813F0020F60D1FEF734FFA9
:10174400401B0228F5D9032065E1704B5B6813F454
:10175400800FA0D0C6E76D4A136843F4803313604A
:10176400A9E76A4B1A6842F480221A601A6842F4A4
:1017740080321A609FE7FEF717FF0546634B1B682C
:1017840013F4003FB7D0FEF70FFF401B6428F5D9D0
:10179400032040E15D4B5B6813F4800FBAD15B4BCF
:1017A4001B6813F0020F0AD0E368012B07D0012055
:1017B40031E1564B5B6813F4800FB1D1EFE7534A24
:1017C400136823F0F803216943EAC1031360236813
:1017D40013F0080F40D0636963B301224D4B1A60C4
:1017E400FEF7E2FE0546494B5B6F13F0020F33D15F
:1017F400FEF7DAFE401B0228F5D903200BE1434A29
:10180400136823F0F803216943EAC1031360DEE798
:1018140000223F4B1A60FEF7C7FE05463B4B1B6890
:1018240013F0020FD3D0FEF7BFFE401B0228F5D9F8
:101834000320F0E00022374B1A60FEF7B5FE0546A0
:10184400324B5B6F13F0020F06D0FEF7ADFE401B68
:101854000228F5D90320DEE0236813F0040F79D0C1
:101864002A4B1B6C13F0805F33D100230193274B69
:101874001A6C42F080521A641B6C03F0805301937B
:10188400019B0125244B1B6813F4807F23D0A3689C
:10189400012B34D0052B41D01C4B1A6F22F00102CE
:1018A4001A671A6F22F004021A67A368002B3FD04C
:1018B400FEF77AFE0646154B1B6F13F0020F48D154
:1018C400FEF772FE801B41F288339842F3D903205D
:1018D400A1E00025D6E7104A136843F4807313602F
:1018E400FEF762FE06460C4B1B6813F4807FCED1D4
:1018F400FEF75AFE801B0228F5D903208BE0034A29
:10190400136F43F001031367CFE700BF00380240B1
:1019140000004742800E474200700040404B1A6F5F
:1019240042F004021A671A6F42F001021A67BCE718
:10193400FEF73AFE06463A4B1B6F13F0020F08D02F
:10194400FEF732FE801B41F288339842F3D903201C
:1019540061E0E5B9A369002B5CD0314A926802F0DA
:101964000C02082A59D0022B17D000222D4B1A60E2
:10197400FEF71AFE04462A4B1B6813F0007F45D07D
:10198400FEF712FE001B0228F5D9032043E0244A87
:10199400136C23F080531364DCE70022214B1A609C
:1019A400FEF702FE05461E4B1B6813F0007F06D0AF
:1019B400FEF7FAFD401B0228F5D903202BE0E3696A
:1019C400226A1343626A43EA8213A26A5208013A02
:1019D40043EA0243E26A43EA0263226B43EA027384
:1019E4000F4A536001220F4B1A60FEF7DDFD0446D7
:1019F4000B4B1B6813F0007F06D1FEF7D5FD001BCF
:101A04000228F5D9032006E0002004E0002002E0CB
:101A1400012000E0002002B070BD0120FBE700BF00
:101A240000380240600047420268D36823F4907390
:101A3400D3600268536923F001035361202380F8C3
:101A44003A30704790F83930DBB2212B01D00220B4
:101A540070478368B3F5805F17D00268036A591C26
:101A640001621B785360C38C9BB2013B9BB2C3845D
:101A7400DBB90268D36823F08003D3600268D368BB
:101A840043F04003D36000207047036A02681B8858
:101A9400C3F30803536003691BB9036A0233036287
:101AA400E1E7036A01330362DDE7002070470000C9
:101AB4002DE9F04704460268136923F44053C168D2
:101AC4000B43136183680269134342691343C26978
:101AD40013430168CA6822F4164222F00C0213432D
:101AE400CB600268536923F4407381690B435361EB
:101AF400C369B3F5004F62D0D0F80080BB4B984562
:101B040000F01B8103F58063984500F01681FFF710
:101B1400C9FC00EB800000EB80006568AD00B0FB01
:101B2400F5F5B34FA7FB05356D092E01FFF7BAFC98
:101B340000EB800000EB80006568AD00B0FBF5FAB7
:101B4400FFF7B0FC00EB800000EB80006568AD009F
:101B5400B0FBF5F5A7FB05356D094FF0640909FBEA
:101B640015A52D013235A7FB05356D0905F0F005E6
:101B74003544FFF797FC00EB800000EB80006668BB
:101B8400B600B0FBF6F6FFF78DFC00EB800000EB2F
:101B9400800063689B00B0FBF3F0A7FB00304009B2
:101BA40009FB10694FEA091909F13209A7FB093742
:101BB400C7F343172F44C8F80870BDE8F087D0F87E
:101BC400008003F1804303F5104398455CD003F58E
:101BD4008063984558D0FFF765FC00EB800000EB6C
:101BE400800065686D00B0FBF5F5814FA7FB0535F6
:101BF4006D092E01FFF756FC00EB800000EB80001E
:101C040065686D00B0FBF5FAFFF74CFC00EB800053
:101C140000EB800065686D00B0FBF5F5A7FB0535AA
:101C24006D094FF0640909FB15A5ED003235A7FBDA
:101C340005356D096D0005F4F8753544FFF732FC80
:101C440000EB800000EB800066687600B0FBF6F6DF
:101C5400FFF728FC00EB800000EB800063685B006A
:101C6400B0FBF3F3A7FB03235B0909FB13694FEAFA
:101C7400C90909F13209A7FB0937C7F342172F44F1
:101C8400C8F80870BDE8F087FFF71CFC00EB800083
:101C940000EB800065686D00B0FBF5F5544FA7FBC1
:101CA40005356D092E01FFF70DFC00EB800000EBFC
:101CB400800065686D00B0FBF5FAFFF703FC00EBEC
:101CC400800000EB800065686D00B0FBF5F5A7FBB4
:101CD40005356D094FF0640909FB15A5ED00323592
:101CE400A7FB05356D096D0005F4F8753544FFF75C
:101CF400E9FB00EB800000EB800066687600B0FB37
:101D0400F6F6FFF7DFFB00EB800000EB8000636872
:101D14005B00B0FBF3F3A7FB03235B0909FB136927
:101D24004FEAC90909F13209A7FB0937C7F342177A
:101D34002F44C8F80870BDE8F087FFF7C3FB00EB39
:101D4400800000EB80006568AD00B0FBF5F5284F1E
:101D5400A7FB05356D092E01FFF7B4FB00EB8000EE
:101D640000EB80006568AD00B0FBF5FAFFF7AAFB55
:101D740000EB800000EB80006568AD00B0FBF5F57A
:101D8400A7FB05356D094FF0640909FB15A52D0165
:101D94003235A7FB05356D0905F0F0053544FFF72D
:101DA40091FB00EB800000EB80006668B600B0FB9E
:101DB400F6F6FFF787FB00EB800000EB800063681A
:101DC4009B00B0FBF3F3A7FB03235B0909FB136937
:101DD4004FEA091909F13209A7FB0937C7F3431779
:101DE4002F44C8F80870BDE8F08700BF0010014018
:101DF4001F85EB512DE9F04105460F4616469846DE
:101E0400069C2B681B6837EA03030CBF01230023DD
:101E1400B3421ED1B4F1FF3FF3D02CB1FEF7C4FBA3
:101E2400A0EB08008442ECD22A68D36823F4D07370
:101E3400D3602A68536923F001035361202385F892
:101E4400393085F83A30002385F838300320BDE86E
:101E5400F0810020BDE8F08158B310B5044690F835
:101E640039300BB3242384F839302268D36823F43F
:101E74000053D3602046FFF71BFE2268136923F446
:101E8400904313612268536923F02A035361226843
:101E9400D36843F40053D3600020E063202384F824
:101EA400393084F83A3010BD80F8383000F092FBB5
:101EB400D8E7012070472DE9F04182B01E4690F822
:101EC4003930DBB2202B04D00223184602B0BDE81F
:101ED400F08104460D469046002955D0002A55D07D
:101EE40090F83830012B01D10223EEE7012380F86A
:101EF40038300023C363212380F83930FEF754FBC4
:101F04000746A4F82480A4F8268010E000963B46F7
:101F1400002280212046FFF76DFF002838D1226877
:101F24002B88C3F3080353602369CBB90235E38CD0
:101F34009BB2BBB1E38C9BB2013B9BB2E384A3682D
:101F4400B3F5805FE2D000963B4600228021204614
:101F5400FFF750FFF0B923682A785A600135E6E7A5
:101F64000135E4E700963B46002240212046FFF776
:101F740041FF034608B10323A7E7202284F8392050
:101F8400002284F83820A0E701239EE701239CE780
:101F940003239AE7032398E790F83A30DBB2202B27
:101FA40001D002207047F9B102B390F83830012B08
:101FB4001ED081628285C2850023C363222280F8F9
:101FC4003A2080F838300168CA6842F48072CA60E6
:101FD40001684A6942F001024A610168CA6842F034
:101FE4002002CA60184670470120704701207047DC
:101FF40002207047704708B50168CB6823F040039E
:10200400CB60202380F83930FFF7F4FF002008BDAF
:1020140008B590F83A30DBB2222B01D0022008BD7B
:102024008368B3F5805F0FD003690BBB836A5A1CC6
:102034008262026852681A70C38D9BB2013B9BB2E4
:10204400C385F3B1002008BD826A036943B90368FC
:102054005B68C3F308031380836A02338362EBE78C
:1020640003685B68DBB21380836A01338362E3E74E
:10207400826A531C836203685B6803F07F031370F6
:10208400DAE70268D36823F02003D3600268D368D8
:1020940023F48073D3600268536923F0010353610E
:1020A400202380F83A3000F02BF9002008BD704757
:1020B40010B5044602681368D168526913F00F0022
:1020C40005D113F0200F02D011F0200F53D10028B6
:1020D40067D012F0010202D111F4907F61D013F0A5
:1020E400010F06D011F4807F03D0E06B40F00100B3
:1020F400E06313F0040F04D01AB1E06B40F0020067
:10210400E06313F0020F04D01AB1E06B40F0040056
:10211400E06313F0080F04D01AB1E26B42F0080236
:10212400E263E26B002A48D013F0200F02D011F0D2
:10213400200F24D123685B6903F04003E26B12F0A3
:10214400080F00D13BB32046FFF76EFC23685A69A1
:1021540012F0400F1BD05A6922F040025A61636B9F
:102164008BB11A4A1A65606BFEF7A0FA28B3606B4C
:10217400036D984710BD2046FFF74AFF10BD204667
:10218400FFF746FFD6E72046FFF791FF10BD204634
:10219400FFF78DFF10BD2046FFF789FF0023E3639F
:1021A40010BD13F0800F02D011F0800F06D113F090
:1021B400400F02D011F0400F04D110BD2046FFF7AC
:1021C40041FC10BD2046FFF716FFF6E7D5210008B5
:1021D40008B5806B0023C385C384FFF768FF08BD7F
:1021E40084B000220192104B196B41F080011963F5
:1021F400196B01F08001019101990292196B41F070
:1022040001011963196B01F0010102910299039212
:102214001A6B42F002021A631B6B03F0020303936E
:10222400039B04B0704700BF0038024008B509485A
:10223400094B0360094B436000238360C3604FF480
:102244008042026143618361C3610362FEF740FD22
:1022540008BD00BF3800002000540040801A06006A
:1022640008B50848084B03604FF416534360002335
:102274008360C36003610C2242618361C361FFF721
:10228400EBFD08BD980000200044004000B585B077
:102294008DF80C008DF80D1064230093022303AA1B
:1022A400A6210348FEF7E4FD05B05DF804FB00BF7A
:1022B4003800002000B585B0642302930191054BDA
:1022C400009301230246A6210348FEF78BFE05B0C6
:1022D4005DF804FB900000203800002008B50121BF
:1022E4000020FFF7E7FF00212D20FFF7CFFF082193
:1022F4002D20FFF7CBFF00213120FFF7C7FF08BDDA
:1023040010B502681B4B9A420AD01B480268D36876
:1023140043F02003D36004221849FFF73DFE10BDAB
:10232400164B1B78FF2B15D0144C14230422214682
:102334001148FFF7C0FD227811490B6813436278F6
:1023440042EA0322A37843EA0222E37843EA02231F
:102354000B60DAE7094B5B78002BE5D1074B9B78E0
:10236400FF2BE1D1054BDB78002BDDD10122054B9E
:102374005A70CAE70044004098000020D8000020AA
:102384008C00002028000020044B5B78012B00D037
:102394007047034A136801331360F9E728000020EB
:1023A4008C00002030B595B03422002107A800F03D
:1023B400D9F9002402940394049405940694009497
:1023C4001D4B1A6C42F080521A641B6C03F080534C
:1023D4000093009B0194194B1A6842F440421A601E
:1023E4001B6803F440430193019B012307934FF4BB
:1023F4008033089302250D954FF480030E93042334
:102404000F93B423109311951295139507A8FFF712
:1024140029F9FEF755FF0F230293039504944FF413
:10242400A05305934FF480530693052102A8FEF7A9
:1024340087FF15B030BD00BF003802400070004077
:1024440008B5FEF789F8FFF7ADFFFFF7C9FEFFF700
:10245400EDFEFFF705FFFFF741FF2C480268D36844
:1024640043F02003D36004222949FFF795FD04E0DB
:10247400042227492548FFF78FFD264B5B78002B64
:10248400F6D0012BF9D106213220FFF713FF224B9E
:102494001A68D1B21F4CE171C2F30720A071C2F3D4
:1024A40007436371120E2271134450FA83F351FAF5
:1024B40083F31A4D2A7852FA83F36A7852FA83F333
:1024C400AA7852FA83F3EA7852FA83F32A7952FA11
:1024D40083F36A7952FA83F323721420FEF76AF8BD
:1024E4000A4E0A230422A1183046FFF7E4FC0A230B
:1024F400062229463046FFF7DEFC0A23012204F1B6
:1025040008013046FFF7D7FCB7E700BF980000206A
:10251400D8000020280000208C000020900000201B
:1025240000B583B0002100910C4B5A6C42F48042F8
:102534005A645A6C02F480420092009A01911A6C17
:1025440042F080521A641B6C03F080530193019B88
:102554000720FEF743F803B05DF804FB003802409F
:1025640030B589B00023039304930593069307932E
:102574000268154B9A4201D009B030BD002501957F
:10258400124C236B43F002032363236B03F0020317
:102594000193019B4FF4407303931223049301238B
:1025A4000593032306930423079303A90848FEF71E
:1025B40091F80295236C43F400132364236C03F411
:1025C40000130293029BD7E70054004000380240F6
:1025D4000004024010B588B00023039304930593CC
:1025E400069307930268194B9A4201D008B010BDB4
:1025F4000024019403F5FA331A6C42F400321A648D
:102604001A6C02F400320192019A02941A6B42F09D
:1026140001021A631B6B03F001030293029B0C2358
:1026240003930223049301230593032306930723AF
:10263400079303A90648FEF74DF8224621462620B3
:10264400FDF7DEFF2620FEF70DF8CFE7004400403B
:10265400000002407047FEE7FEE7FEE7FEE7704732
:102664007047704708B5FDF791FF08BD08B50248EB
:10267400FFF71EFD08BD00BF980000200F49D1F8E8
:10268400883043F47003C1F888300D4B1A6842F067
:1026940001021A60002098601A6822F0847222F401
:1026A40080321A60074A5A601A6822F480221A603B
:1026B400D8604FF000638B60704700BF00ED00E00E
:1026C4000038024010300024DFF834D0002103E049
:1026D4000C4B5B58435004310B480C4B42189A4244
:1026E400F6D30B4A02E0002342F8043B094B9A421A
:1026F400F9D3FFF7C3FF00F011F8FFF7A1FE70470D
:1027040000000220B8270008000000200C00002070
:102714000C000020DC000020FEE7000070B50D4E28
:102724000D4CA41BA4100025A54209D10B4E0C4C42
:1027340000F020F8A41BA4100025A54205D170BD0B
:1027440056F8253098470135EEE756F82530984776
:102754000135F2E7B0270008B0270008B0270008C9
:10276400B427000802440346934200D1704703F89B
:10277400011BF9E7F8B500BFF8BC08BC9E467047DA
:0C278400F8B500BFF8BC08BC9E467047CA
:102790000000000000000000010203040607080911
:0827A000000000000102030427
:0827A8008CDAFF7F0100000044
:0427B000E901000833
:0427B400C501000853
:0C27B80001000000100000000024F400EC
:04000005080026CDFC
:00000001FF
